{
    "_format": "hh-sol-artifact-1",
    "contractName": "NHIF",
    "sourceName": "contracts/NHIF.sol",
    "abi": [
        {
            "inputs": [
                {
                    "internalType": "uint256",
                    "name": "_monthlyContributionWei",
                    "type": "uint256"
                }
            ],
            "stateMutability": "nonpayable",
            "type": "constructor"
        },
        {
            "inputs": [
                {
                    "internalType": "address",
                    "name": "owner",
                    "type": "address"
                }
            ],
            "name": "OwnableInvalidOwner",
            "type": "error"
        },
        {
            "inputs": [
                {
                    "internalType": "address",
                    "name": "account",
                    "type": "address"
                }
            ],
            "name": "OwnableUnauthorizedAccount",
            "type": "error"
        },
        {
            "inputs": [],
            "name": "ReentrancyGuardReentrantCall",
            "type": "error"
        },
        {
            "anonymous": false,
            "inputs": [
                {
                    "indexed": true,
                    "internalType": "uint256",
                    "name": "claimId",
                    "type": "uint256"
                },
                {
                    "indexed": false,
                    "internalType": "address",
                    "name": "provider",
                    "type": "address"
                },
                {
                    "indexed": false,
                    "internalType": "uint256",
                    "name": "amount",
                    "type": "uint256"
                }
            ],
            "name": "ClaimPaid",
            "type": "event"
        },
        {
            "anonymous": false,
            "inputs": [
                {
                    "indexed": true,
                    "internalType": "uint256",
                    "name": "claimId",
                    "type": "uint256"
                },
                {
                    "indexed": false,
                    "internalType": "enum NHIF.ClaimStatus",
                    "name": "newStatus",
                    "type": "uint8"
                }
            ],
            "name": "ClaimStatusUpdated",
            "type": "event"
        },
        {
            "anonymous": false,
            "inputs": [
                {
                    "indexed": true,
                    "internalType": "uint256",
                    "name": "claimId",
                    "type": "uint256"
                },
                {
                    "indexed": false,
                    "internalType": "uint256",
                    "name": "nationalId",
                    "type": "uint256"
                },
                {
                    "indexed": false,
                    "internalType": "address",
                    "name": "provider",
                    "type": "address"
                },
                {
                    "indexed": false,
                    "internalType": "uint256",
                    "name": "amount",
                    "type": "uint256"
                }
            ],
            "name": "ClaimSubmitted",
            "type": "event"
        },
        {
            "anonymous": false,
            "inputs": [
                {
                    "indexed": true,
                    "internalType": "uint256",
                    "name": "nationalId",
                    "type": "uint256"
                },
                {
                    "indexed": false,
                    "internalType": "uint256",
                    "name": "amount",
                    "type": "uint256"
                },
                {
                    "indexed": false,
                    "internalType": "address",
                    "name": "payer",
                    "type": "address"
                }
            ],
            "name": "ContributionPaid",
            "type": "event"
        },
        {
            "anonymous": false,
            "inputs": [
                {
                    "indexed": true,
                    "internalType": "uint256",
                    "name": "nationalId",
                    "type": "uint256"
                },
                {
                    "indexed": false,
                    "internalType": "string",
                    "name": "name",
                    "type": "string"
                }
            ],
            "name": "MemberRegistered",
            "type": "event"
        },
        {
            "anonymous": false,
            "inputs": [
                {
                    "indexed": true,
                    "internalType": "address",
                    "name": "previousOwner",
                    "type": "address"
                },
                {
                    "indexed": true,
                    "internalType": "address",
                    "name": "newOwner",
                    "type": "address"
                }
            ],
            "name": "OwnershipTransferred",
            "type": "event"
        },
        {
            "anonymous": false,
            "inputs": [
                {
                    "indexed": false,
                    "internalType": "address",
                    "name": "provider",
                    "type": "address"
                }
            ],
            "name": "ProviderRegistered",
            "type": "event"
        },
        {
            "anonymous": false,
            "inputs": [
                {
                    "indexed": false,
                    "internalType": "address",
                    "name": "provider",
                    "type": "address"
                }
            ],
            "name": "ProviderRemoved",
            "type": "event"
        },
        {
            "anonymous": false,
            "inputs": [
                {
                    "indexed": false,
                    "internalType": "address",
                    "name": "provider",
                    "type": "address"
                },
                {
                    "indexed": false,
                    "internalType": "uint256",
                    "name": "amount",
                    "type": "uint256"
                }
            ],
            "name": "ProviderWithdrawal",
            "type": "event"
        },
        {
            "inputs": [],
            "name": "AUTO_APPROVE_LIMIT",
            "outputs": [
                {
                    "internalType": "uint256",
                    "name": "",
                    "type": "uint256"
                }
            ],
            "stateMutability": "view",
            "type": "function"
        },
        {
            "inputs": [],
            "name": "MAX_CLAIM_AMOUNT",
            "outputs": [
                {
                    "internalType": "uint256",
                    "name": "",
                    "type": "uint256"
                }
            ],
            "stateMutability": "view",
            "type": "function"
        },
        {
            "inputs": [],
            "name": "YEARLY_CLAIM_LIMIT",
            "outputs": [
                {
                    "internalType": "uint256",
                    "name": "",
                    "type": "uint256"
                }
            ],
            "stateMutability": "view",
            "type": "function"
        },
        {
            "inputs": [
                {
                    "internalType": "uint256",
                    "name": "",
                    "type": "uint256"
                }
            ],
            "name": "claims",
            "outputs": [
                {
                    "internalType": "uint256",
                    "name": "nationalId",
                    "type": "uint256"
                },
                {
                    "internalType": "address",
                    "name": "provider",
                    "type": "address"
                },
                {
                    "internalType": "uint256",
                    "name": "amount",
                    "type": "uint256"
                },
                {
                    "internalType": "bool",
                    "name": "isPaid",
                    "type": "bool"
                },
                {
                    "internalType": "string",
                    "name": "ipfsHash",
                    "type": "string"
                },
                {
                    "internalType": "enum NHIF.ClaimStatus",
                    "name": "status",
                    "type": "uint8"
                }
            ],
            "stateMutability": "view",
            "type": "function"
        },
        {
            "inputs": [
                {
                    "internalType": "address",
                    "name": "_address",
                    "type": "address"
                }
            ],
            "name": "getAddressBalance",
            "outputs": [
                {
                    "internalType": "uint256",
                    "name": "",
                    "type": "uint256"
                }
            ],
            "stateMutability": "view",
            "type": "function"
        },
        {
            "inputs": [],
            "name": "getClaimsCount",
            "outputs": [
                {
                    "internalType": "uint256",
                    "name": "",
                    "type": "uint256"
                }
            ],
            "stateMutability": "view",
            "type": "function"
        },
        {
            "inputs": [
                {
                    "internalType": "uint256",
                    "name": "_nationalId",
                    "type": "uint256"
                }
            ],
            "name": "getMemberStatus",
            "outputs": [
                {
                    "internalType": "bool",
                    "name": "isActive",
                    "type": "bool"
                },
                {
                    "internalType": "string",
                    "name": "name",
                    "type": "string"
                },
                {
                    "internalType": "uint256",
                    "name": "lastContributionDate",
                    "type": "uint256"
                },
                {
                    "internalType": "uint256",
                    "name": "totalContributions",
                    "type": "uint256"
                }
            ],
            "stateMutability": "view",
            "type": "function"
        },
        {
            "inputs": [
                {
                    "internalType": "uint256",
                    "name": "_nationalId",
                    "type": "uint256"
                }
            ],
            "name": "getMemberTotalContributions",
            "outputs": [
                {
                    "internalType": "uint256",
                    "name": "",
                    "type": "uint256"
                }
            ],
            "stateMutability": "view",
            "type": "function"
        },
        {
            "inputs": [],
            "name": "getMonthlyContribution",
            "outputs": [
                {
                    "internalType": "uint256",
                    "name": "",
                    "type": "uint256"
                }
            ],
            "stateMutability": "view",
            "type": "function"
        },
        {
            "inputs": [
                {
                    "internalType": "address",
                    "name": "_provider",
                    "type": "address"
                }
            ],
            "name": "getProviderBalance",
            "outputs": [
                {
                    "internalType": "uint256",
                    "name": "",
                    "type": "uint256"
                }
            ],
            "stateMutability": "view",
            "type": "function"
        },
        {
            "inputs": [
                {
                    "internalType": "uint256",
                    "name": "_nationalId",
                    "type": "uint256"
                }
            ],
            "name": "isMemberActive",
            "outputs": [
                {
                    "internalType": "bool",
                    "name": "",
                    "type": "bool"
                }
            ],
            "stateMutability": "view",
            "type": "function"
        },
        {
            "inputs": [
                {
                    "internalType": "address",
                    "name": "_provider",
                    "type": "address"
                }
            ],
            "name": "isRegisteredProvider",
            "outputs": [
                {
                    "internalType": "bool",
                    "name": "",
                    "type": "bool"
                }
            ],
            "stateMutability": "view",
            "type": "function"
        },
        {
            "inputs": [
                {
                    "internalType": "uint256",
                    "name": "_nationalId",
                    "type": "uint256"
                }
            ],
            "name": "makeContribution",
            "outputs": [],
            "stateMutability": "payable",
            "type": "function"
        },
        {
            "inputs": [
                {
                    "internalType": "uint256",
                    "name": "",
                    "type": "uint256"
                },
                {
                    "internalType": "uint256",
                    "name": "",
                    "type": "uint256"
                }
            ],
            "name": "memberYearlyClaims",
            "outputs": [
                {
                    "internalType": "uint256",
                    "name": "",
                    "type": "uint256"
                }
            ],
            "stateMutability": "view",
            "type": "function"
        },
        {
            "inputs": [
                {
                    "internalType": "uint256",
                    "name": "",
                    "type": "uint256"
                }
            ],
            "name": "members",
            "outputs": [
                {
                    "internalType": "string",
                    "name": "name",
                    "type": "string"
                },
                {
                    "internalType": "uint256",
                    "name": "lastContributionDate",
                    "type": "uint256"
                },
                {
                    "internalType": "bool",
                    "name": "isActive",
                    "type": "bool"
                },
                {
                    "internalType": "uint256",
                    "name": "totalContributions",
                    "type": "uint256"
                }
            ],
            "stateMutability": "view",
            "type": "function"
        },
        {
            "inputs": [],
            "name": "monthlyContributionWei",
            "outputs": [
                {
                    "internalType": "uint256",
                    "name": "",
                    "type": "uint256"
                }
            ],
            "stateMutability": "view",
            "type": "function"
        },
        {
            "inputs": [],
            "name": "owner",
            "outputs": [
                {
                    "internalType": "address",
                    "name": "",
                    "type": "address"
                }
            ],
            "stateMutability": "view",
            "type": "function"
        },
        {
            "inputs": [
                {
                    "internalType": "uint256",
                    "name": "_amount",
                    "type": "uint256"
                }
            ],
            "name": "providerWithdraw",
            "outputs": [],
            "stateMutability": "nonpayable",
            "type": "function"
        },
        {
            "inputs": [
                {
                    "internalType": "address",
                    "name": "",
                    "type": "address"
                }
            ],
            "name": "providers",
            "outputs": [
                {
                    "internalType": "bool",
                    "name": "isRegistered",
                    "type": "bool"
                },
                {
                    "internalType": "uint256",
                    "name": "balance",
                    "type": "uint256"
                }
            ],
            "stateMutability": "view",
            "type": "function"
        },
        {
            "inputs": [
                {
                    "internalType": "uint256",
                    "name": "_nationalId",
                    "type": "uint256"
                },
                {
                    "internalType": "string",
                    "name": "_name",
                    "type": "string"
                }
            ],
            "name": "registerMember",
            "outputs": [
                {
                    "internalType": "bool",
                    "name": "",
                    "type": "bool"
                }
            ],
            "stateMutability": "nonpayable",
            "type": "function"
        },
        {
            "inputs": [
                {
                    "internalType": "address",
                    "name": "_provider",
                    "type": "address"
                }
            ],
            "name": "registerProvider",
            "outputs": [],
            "stateMutability": "nonpayable",
            "type": "function"
        },
        {
            "inputs": [
                {
                    "internalType": "address",
                    "name": "_provider",
                    "type": "address"
                }
            ],
            "name": "removeProvider",
            "outputs": [],
            "stateMutability": "nonpayable",
            "type": "function"
        },
        {
            "inputs": [],
            "name": "renounceOwnership",
            "outputs": [],
            "stateMutability": "nonpayable",
            "type": "function"
        },
        {
            "inputs": [
                {
                    "internalType": "uint256",
                    "name": "_claimId",
                    "type": "uint256"
                },
                {
                    "internalType": "enum NHIF.ClaimStatus",
                    "name": "_newStatus",
                    "type": "uint8"
                }
            ],
            "name": "reviewClaim",
            "outputs": [],
            "stateMutability": "nonpayable",
            "type": "function"
        },
        {
            "inputs": [],
            "name": "selfRegisterProvider",
            "outputs": [],
            "stateMutability": "nonpayable",
            "type": "function"
        },
        {
            "inputs": [
                {
                    "internalType": "uint256",
                    "name": "_newContributionWei",
                    "type": "uint256"
                }
            ],
            "name": "setMonthlyContribution",
            "outputs": [],
            "stateMutability": "nonpayable",
            "type": "function"
        },
        {
            "inputs": [
                {
                    "internalType": "uint256",
                    "name": "_nationalId",
                    "type": "uint256"
                },
                {
                    "internalType": "uint256",
                    "name": "_amount",
                    "type": "uint256"
                },
                {
                    "internalType": "string",
                    "name": "_ipfsHash",
                    "type": "string"
                }
            ],
            "name": "submitClaim",
            "outputs": [],
            "stateMutability": "nonpayable",
            "type": "function"
        },
        {
            "inputs": [
                {
                    "internalType": "address",
                    "name": "newOwner",
                    "type": "address"
                }
            ],
            "name": "transferOwnership",
            "outputs": [],
            "stateMutability": "nonpayable",
            "type": "function"
        },
        {
            "inputs": [
                {
                    "internalType": "uint256",
                    "name": "_amount",
                    "type": "uint256"
                }
            ],
            "name": "withdrawFunds",
            "outputs": [],
            "stateMutability": "nonpayable",
            "type": "function"
        },
        {
            "stateMutability": "payable",
            "type": "receive"
        }
    ],
    "bytecode": "0x60806040523480156200001157600080fd5b5060405162003629380380620036298339818101604052810190620000379190620001db565b336001600081905550600073ffffffffffffffffffffffffffffffffffffffff168173ffffffffffffffffffffffffffffffffffffffff1603620000b55760006040517f1e4fbdf7000000000000000000000000000000000000000000000000000000008152600401620000ac919062000252565b60405180910390fd5b620000c681620000d560201b60201c565b5080600281905550506200026f565b6000600160009054906101000a900473ffffffffffffffffffffffffffffffffffffffff16905081600160006101000a81548173ffffffffffffffffffffffffffffffffffffffff021916908373ffffffffffffffffffffffffffffffffffffffff1602179055508173ffffffffffffffffffffffffffffffffffffffff168173ffffffffffffffffffffffffffffffffffffffff167f8be0079c531659141344cd1fd0a4f28419497f9722a3daafe3b4186f6b6457e060405160405180910390a35050565b600080fd5b6000819050919050565b620001b581620001a0565b8114620001c157600080fd5b50565b600081519050620001d581620001aa565b92915050565b600060208284031215620001f457620001f36200019b565b5b60006200020484828501620001c4565b91505092915050565b600073ffffffffffffffffffffffffffffffffffffffff82169050919050565b60006200023a826200020d565b9050919050565b6200024c816200022d565b82525050565b600060208201905062000269600083018462000241565b92915050565b6133aa806200027f6000396000f3fe6080604052600436106101c65760003560e01c806373e67938116100f75780639e2176f911610095578063d90a352811610064578063d90a35281461066e578063e362b4f7146106ab578063ea4d979a146106d6578063f2fde38b14610713576101cd565b80639e2176f91461059b578063a888c2cd146105c4578063b1aed43e14610606578063d3ffde9514610631576101cd565b806381054ac4116100d157806381054ac4146104df578063832eea0c1461050a5780638a355a57146105475780638da5cb5b14610570576101cd565b806373e679381461045d5780637a5cfd40146104885780637d0d719b1461049f576101cd565b80633c20283c116101645780634186c4e81161013e5780634186c4e81461038c57806351ca236f146103c95780635daf08ca14610406578063715018a614610446576101cd565b80633c20283c1461030d5780633d921ddf146103385780633ef8f2ba14610361576101cd565b8063155dd5ee116101a0578063155dd5ee14610262578063350467221461028b578063360a2bcb146102c85780633a59f4f3146102e4576101cd565b806306964de7146101d25780630787bc27146101fb5780630e26001614610239576101cd565b366101cd57005b600080fd5b3480156101de57600080fd5b506101f960048036038101906101f491906121f5565b61073c565b005b34801561020757600080fd5b50610222600480360381019061021d91906122c2565b610bdf565b604051610230929190612319565b60405180910390f35b34801561024557600080fd5b50610260600480360381019061025b91906122c2565b610c10565b005b34801561026e57600080fd5b5061028960048036038101906102849190612342565b610d67565b005b34801561029757600080fd5b506102b260048036038101906102ad91906122c2565b610e03565b6040516102bf919061236f565b60405180910390f35b6102e260048036038101906102dd9190612342565b610e24565b005b3480156102f057600080fd5b5061030b600480360381019061030691906123af565b610f88565b005b34801561031957600080fd5b506103226111a9565b60405161032f919061236f565b60405180910390f35b34801561034457600080fd5b5061035f600480360381019061035a9190612342565b6111b7565b005b34801561036d57600080fd5b506103766111c9565b604051610383919061236f565b60405180910390f35b34801561039857600080fd5b506103b360048036038101906103ae9190612342565b6111d6565b6040516103c091906123ef565b60405180910390f35b3480156103d557600080fd5b506103f060048036038101906103eb91906122c2565b611203565b6040516103fd91906123ef565b60405180910390f35b34801561041257600080fd5b5061042d60048036038101906104289190612342565b61125c565b60405161043d9493929190612489565b60405180910390f35b34801561045257600080fd5b5061045b611321565b005b34801561046957600080fd5b50610472611335565b60405161047f919061236f565b60405180910390f35b34801561049457600080fd5b5061049d611342565b005b3480156104ab57600080fd5b506104c660048036038101906104c19190612342565b611490565b6040516104d694939291906124d5565b60405180910390f35b3480156104eb57600080fd5b506104f461156a565b604051610501919061236f565b60405180910390f35b34801561051657600080fd5b50610531600480360381019061052c91906122c2565b611574565b60405161053e919061236f565b60405180910390f35b34801561055357600080fd5b5061056e600480360381019061056991906122c2565b6115c0565b005b34801561057c57600080fd5b506105856116ec565b6040516105929190612530565b60405180910390f35b3480156105a757600080fd5b506105c260048036038101906105bd9190612342565b611716565b005b3480156105d057600080fd5b506105eb60048036038101906105e69190612342565b611916565b6040516105fd969594939291906125c2565b60405180910390f35b34801561061257600080fd5b5061061b611a24565b604051610628919061236f565b60405180910390f35b34801561063d57600080fd5b506106586004803603810190610653919061262a565b611a2a565b60405161066591906123ef565b60405180910390f35b34801561067a57600080fd5b5061069560048036038101906106909190612686565b611bad565b6040516106a2919061236f565b60405180910390f35b3480156106b757600080fd5b506106c0611bd2565b6040516106cd919061236f565b60405180910390f35b3480156106e257600080fd5b506106fd60048036038101906106f89190612342565b611bdf565b60405161070a919061236f565b60405180910390f35b34801561071f57600080fd5b5061073a600480360381019061073591906122c2565b611bff565b005b600460003373ffffffffffffffffffffffffffffffffffffffff1673ffffffffffffffffffffffffffffffffffffffff16815260200190815260200160002060000160009054906101000a900460ff166107cb576040517f08c379a00000000000000000000000000000000000000000000000000000000081526004016107c290612738565b60405180910390fd5b6107d3611c85565b6003600084815260200190815260200160002060020160009054906101000a900460ff16610836576040517f08c379a000000000000000000000000000000000000000000000000000000000815260040161082d906127a4565b60405180910390fd5b683635c9adc5dea00000821115610882576040517f08c379a000000000000000000000000000000000000000000000000000000000815260040161087990612810565b60405180910390fd5b62278d006003600085815260200190815260200160002060010154426108a8919061285f565b11156108e9576040517f08c379a00000000000000000000000000000000000000000000000000000000081526004016108e0906128df565b60405180910390fd5b60006107b26301e13380426108fe919061292e565b610908919061295f565b905082600560008681526020019081526020016000206000838152602001908152602001600020600082825461093e919061295f565b9250508190555069010f0cf064dd592000006005600086815260200190815260200160002060008381526020019081526020016000205411156109b6576040517f08c379a00000000000000000000000000000000000000000000000000000000081526004016109ad906129df565b60405180910390fd5b60006006805490509050600068056bc75e2d631000008511156109da5760016109dd565b60025b905060066040518060c001604052808881526020013373ffffffffffffffffffffffffffffffffffffffff168152602001878152602001600015158152602001868152602001836003811115610a3657610a3561254b565b5b81525090806001815401808255809150506001900390600052602060002090600602016000909190919091506000820151816000015560208201518160010160006101000a81548173ffffffffffffffffffffffffffffffffffffffff021916908373ffffffffffffffffffffffffffffffffffffffff1602179055506040820151816002015560608201518160030160006101000a81548160ff0219169083151502179055506080820151816004019081610af29190612c0b565b5060a08201518160050160006101000a81548160ff02191690836003811115610b1e57610b1d61254b565b5b02179055505050817f3a30d1c4069e097873e77443df9683e8de5c7ba3674315b8670a0211e3130195873388604051610b5993929190612cdd565b60405180910390a2817f2e7de2377c1e6f85a268dbe00519c60d65c9e38570a118be0eb07feb07fc89be82604051610b919190612d14565b60405180910390a260026003811115610bad57610bac61254b565b5b816003811115610bc057610bbf61254b565b5b03610bcf57610bce82611ccb565b5b505050610bda611f06565b505050565b60046020528060005260406000206000915090508060000160009054906101000a900460ff16908060010154905082565b610c18611f10565b600460008273ffffffffffffffffffffffffffffffffffffffff1673ffffffffffffffffffffffffffffffffffffffff16815260200190815260200160002060000160009054906101000a900460ff1615610ca8576040517f08c379a0000000000000000000000000000000000000000000000000000000008152600401610c9f90612d7b565b60405180910390fd5b60405180604001604052806001151581526020016000815250600460008373ffffffffffffffffffffffffffffffffffffffff1673ffffffffffffffffffffffffffffffffffffffff16815260200190815260200160002060008201518160000160006101000a81548160ff021916908315150217905550602082015181600101559050507f70abce74777b3838ae60a33a6b9a87d9d25532668fe4fea548554c55868579c081604051610d5c9190612530565b60405180910390a150565b610d6f611f10565b47811115610db2576040517f08c379a0000000000000000000000000000000000000000000000000000000008152600401610da990612de7565b60405180910390fd5b610dba6116ec565b73ffffffffffffffffffffffffffffffffffffffff166108fc829081150290604051600060405180830381858888f19350505050158015610dff573d6000803e3d6000fd5b5050565b60008173ffffffffffffffffffffffffffffffffffffffff16319050919050565b610e2c611c85565b60008103610e6f576040517f08c379a0000000000000000000000000000000000000000000000000000000008152600401610e6690612e53565b60405180910390fd5b610e78816111d6565b610eb7576040517f08c379a0000000000000000000000000000000000000000000000000000000008152600401610eae90612ee5565b60405180910390fd5b6002543414610efb576040517f08c379a0000000000000000000000000000000000000000000000000000000008152600401610ef290612f51565b60405180910390fd5b42600360008381526020019081526020016000206001018190555034600360008381526020019081526020016000206003016000828254610f3c919061295f565b92505081905550807feef6ff3446b5ececc6a644fe5d1ac01057cbdab655d8caf13defa143433c2bc93433604051610f75929190612f71565b60405180910390a2610f85611f06565b50565b610f90611f10565b6006805490508210610fd7576040517f08c379a0000000000000000000000000000000000000000000000000000000008152600401610fce90612fe6565b60405180910390fd5b600060068381548110610fed57610fec613006565b5b90600052602060002090600602019050600160038111156110115761101061254b565b5b8160050160009054906101000a900460ff1660038111156110355761103461254b565b5b14611075576040517f08c379a000000000000000000000000000000000000000000000000000000000815260040161106c90613081565b60405180910390fd5b600260038111156110895761108861254b565b5b82600381111561109c5761109b61254b565b5b14806110cb57506003808111156110b6576110b561254b565b5b8260038111156110c9576110c861254b565b5b145b61110a576040517f08c379a0000000000000000000000000000000000000000000000000000000008152600401611101906130ed565b60405180910390fd5b818160050160006101000a81548160ff021916908360038111156111315761113061254b565b5b0217905550827f2e7de2377c1e6f85a268dbe00519c60d65c9e38570a118be0eb07feb07fc89be836040516111669190612d14565b60405180910390a2600260038111156111825761118161254b565b5b8260038111156111955761119461254b565b5b036111a4576111a383611ccb565b5b505050565b69010f0cf064dd5920000081565b6111bf611f10565b8060028190555050565b6000600680549050905090565b60006003600083815260200190815260200160002060020160009054906101000a900460ff169050919050565b6000600460008373ffffffffffffffffffffffffffffffffffffffff1673ffffffffffffffffffffffffffffffffffffffff16815260200190815260200160002060000160009054906101000a900460ff169050919050565b600360205280600052604060002060009150905080600001805461127f90612a2e565b80601f01602080910402602001604051908101604052809291908181526020018280546112ab90612a2e565b80156112f85780601f106112cd576101008083540402835291602001916112f8565b820191906000526020600020905b8154815290600101906020018083116112db57829003601f168201915b5050505050908060010154908060020160009054906101000a900460ff16908060030154905084565b611329611f10565b6113336000611f97565b565b68056bc75e2d6310000081565b600460003373ffffffffffffffffffffffffffffffffffffffff1673ffffffffffffffffffffffffffffffffffffffff16815260200190815260200160002060000160009054906101000a900460ff16156113d2576040517f08c379a00000000000000000000000000000000000000000000000000000000081526004016113c990612d7b565b60405180910390fd5b60405180604001604052806001151581526020016000815250600460003373ffffffffffffffffffffffffffffffffffffffff1673ffffffffffffffffffffffffffffffffffffffff16815260200190815260200160002060008201518160000160006101000a81548160ff021916908315150217905550602082015181600101559050507f70abce74777b3838ae60a33a6b9a87d9d25532668fe4fea548554c55868579c0336040516114869190612530565b60405180910390a1565b6000606060008060006003600087815260200190815260200160002090508060020160009054906101000a900460ff1681600001826001015483600301548280546114da90612a2e565b80601f016020809104026020016040519081016040528092919081815260200182805461150690612a2e565b80156115535780601f1061152857610100808354040283529160200191611553565b820191906000526020600020905b81548152906001019060200180831161153657829003601f168201915b505050505092509450945094509450509193509193565b6000600254905090565b6000600460008373ffffffffffffffffffffffffffffffffffffffff1673ffffffffffffffffffffffffffffffffffffffff168152602001908152602001600020600101549050919050565b6115c8611f10565b600460008273ffffffffffffffffffffffffffffffffffffffff1673ffffffffffffffffffffffffffffffffffffffff16815260200190815260200160002060000160009054906101000a900460ff16611657576040517f08c379a000000000000000000000000000000000000000000000000000000000815260040161164e90613159565b60405180910390fd5b6000600460008373ffffffffffffffffffffffffffffffffffffffff1673ffffffffffffffffffffffffffffffffffffffff16815260200190815260200160002060000160006101000a81548160ff0219169083151502179055507f1589f8555933761a3cff8aa925061be3b46e2dd43f621322ab611d300f62b1d9816040516116e19190612530565b60405180910390a150565b6000600160009054906101000a900473ffffffffffffffffffffffffffffffffffffffff16905090565b61171e611c85565b600460003373ffffffffffffffffffffffffffffffffffffffff1673ffffffffffffffffffffffffffffffffffffffff16815260200190815260200160002060000160009054906101000a900460ff166117ad576040517f08c379a00000000000000000000000000000000000000000000000000000000081526004016117a490613159565b60405180910390fd5b80600460003373ffffffffffffffffffffffffffffffffffffffff1673ffffffffffffffffffffffffffffffffffffffff168152602001908152602001600020600101541015611832576040517f08c379a000000000000000000000000000000000000000000000000000000000815260040161182990612de7565b60405180910390fd5b80600460003373ffffffffffffffffffffffffffffffffffffffff1673ffffffffffffffffffffffffffffffffffffffff1681526020019081526020016000206001016000828254611884919061285f565b925050819055503373ffffffffffffffffffffffffffffffffffffffff166108fc829081150290604051600060405180830381858888f193505050501580156118d1573d6000803e3d6000fd5b507f2a8a6dc25237dc0f0fd20cc0ee5723bf38644ce2748cf797fd9c4933123ea6e63382604051611903929190613179565b60405180910390a1611913611f06565b50565b6006818154811061192657600080fd5b90600052602060002090600602016000915090508060000154908060010160009054906101000a900473ffffffffffffffffffffffffffffffffffffffff16908060020154908060030160009054906101000a900460ff169080600401805461198e90612a2e565b80601f01602080910402602001604051908101604052809291908181526020018280546119ba90612a2e565b8015611a075780601f106119dc57610100808354040283529160200191611a07565b820191906000526020600020905b8154815290600101906020018083116119ea57829003601f168201915b5050505050908060050160009054906101000a900460ff16905086565b60025481565b6000808303611a6e576040517f08c379a0000000000000000000000000000000000000000000000000000000008152600401611a6590612e53565b60405180910390fd5b6000825111611ab2576040517f08c379a0000000000000000000000000000000000000000000000000000000008152600401611aa9906131ee565b60405180910390fd5b6003600084815260200190815260200160002060020160009054906101000a900460ff1615611ae45760009050611ba7565b6040518060800160405280838152602001600081526020016001151581526020016000815250600360008581526020019081526020016000206000820151816000019081611b329190612c0b565b506020820151816001015560408201518160020160006101000a81548160ff02191690831515021790555060608201518160030155905050827f394b0745ce148d882ab7104947884f02969ee703a2fdfddbef4506ef1f4febc883604051611b9a919061320e565b60405180910390a2600190505b92915050565b6005602052816000526040600020602052806000526040600020600091509150505481565b683635c9adc5dea0000081565b600060036000838152602001908152602001600020600301549050919050565b611c07611f10565b600073ffffffffffffffffffffffffffffffffffffffff168173ffffffffffffffffffffffffffffffffffffffff1603611c795760006040517f1e4fbdf7000000000000000000000000000000000000000000000000000000008152600401611c709190612530565b60405180910390fd5b611c8281611f97565b50565b600260005403611cc1576040517f3ee5aeb500000000000000000000000000000000000000000000000000000000815260040160405180910390fd5b6002600081905550565b600060068281548110611ce157611ce0613006565b5b906000526020600020906006020190508060030160009054906101000a900460ff1615611d43576040517f08c379a0000000000000000000000000000000000000000000000000000000008152600401611d3a9061327c565b60405180910390fd5b60026003811115611d5757611d5661254b565b5b8160050160009054906101000a900460ff166003811115611d7b57611d7a61254b565b5b14611dbb576040517f08c379a0000000000000000000000000000000000000000000000000000000008152600401611db2906132e8565b60405180910390fd5b8060020154471015611e02576040517f08c379a0000000000000000000000000000000000000000000000000000000008152600401611df990613354565b60405180910390fd5b60018160030160006101000a81548160ff0219169083151502179055508060020154600460008360010160009054906101000a900473ffffffffffffffffffffffffffffffffffffffff1673ffffffffffffffffffffffffffffffffffffffff1673ffffffffffffffffffffffffffffffffffffffff1681526020019081526020016000206001016000828254611e99919061295f565b92505081905550817faf3c8fdd75d667f71d36d7840b8ef9086c516c9b047ad6a83a5a66151342123a8260010160009054906101000a900473ffffffffffffffffffffffffffffffffffffffff168360020154604051611efa929190613179565b60405180910390a25050565b6001600081905550565b611f1861205d565b73ffffffffffffffffffffffffffffffffffffffff16611f366116ec565b73ffffffffffffffffffffffffffffffffffffffff1614611f9557611f5961205d565b6040517f118cdaa7000000000000000000000000000000000000000000000000000000008152600401611f8c9190612530565b60405180910390fd5b565b6000600160009054906101000a900473ffffffffffffffffffffffffffffffffffffffff16905081600160006101000a81548173ffffffffffffffffffffffffffffffffffffffff021916908373ffffffffffffffffffffffffffffffffffffffff1602179055508173ffffffffffffffffffffffffffffffffffffffff168173ffffffffffffffffffffffffffffffffffffffff167f8be0079c531659141344cd1fd0a4f28419497f9722a3daafe3b4186f6b6457e060405160405180910390a35050565b600033905090565b6000604051905090565b600080fd5b600080fd5b6000819050919050565b61208c81612079565b811461209757600080fd5b50565b6000813590506120a981612083565b92915050565b600080fd5b600080fd5b6000601f19601f8301169050919050565b7f4e487b7100000000000000000000000000000000000000000000000000000000600052604160045260246000fd5b612102826120b9565b810181811067ffffffffffffffff82111715612121576121206120ca565b5b80604052505050565b6000612134612065565b905061214082826120f9565b919050565b600067ffffffffffffffff8211156121605761215f6120ca565b5b612169826120b9565b9050602081019050919050565b82818337600083830152505050565b600061219861219384612145565b61212a565b9050828152602081018484840111156121b4576121b36120b4565b5b6121bf848285612176565b509392505050565b600082601f8301126121dc576121db6120af565b5b81356121ec848260208601612185565b91505092915050565b60008060006060848603121561220e5761220d61206f565b5b600061221c8682870161209a565b935050602061222d8682870161209a565b925050604084013567ffffffffffffffff81111561224e5761224d612074565b5b61225a868287016121c7565b9150509250925092565b600073ffffffffffffffffffffffffffffffffffffffff82169050919050565b600061228f82612264565b9050919050565b61229f81612284565b81146122aa57600080fd5b50565b6000813590506122bc81612296565b92915050565b6000602082840312156122d8576122d761206f565b5b60006122e6848285016122ad565b91505092915050565b60008115159050919050565b612304816122ef565b82525050565b61231381612079565b82525050565b600060408201905061232e60008301856122fb565b61233b602083018461230a565b9392505050565b6000602082840312156123585761235761206f565b5b60006123668482850161209a565b91505092915050565b6000602082019050612384600083018461230a565b92915050565b6004811061239757600080fd5b50565b6000813590506123a98161238a565b92915050565b600080604083850312156123c6576123c561206f565b5b60006123d48582860161209a565b92505060206123e58582860161239a565b9150509250929050565b600060208201905061240460008301846122fb565b92915050565b600081519050919050565b600082825260208201905092915050565b60005b83811015612444578082015181840152602081019050612429565b60008484015250505050565b600061245b8261240a565b6124658185612415565b9350612475818560208601612426565b61247e816120b9565b840191505092915050565b600060808201905081810360008301526124a38187612450565b90506124b2602083018661230a565b6124bf60408301856122fb565b6124cc606083018461230a565b95945050505050565b60006080820190506124ea60008301876122fb565b81810360208301526124fc8186612450565b905061250b604083018561230a565b612518606083018461230a565b95945050505050565b61252a81612284565b82525050565b60006020820190506125456000830184612521565b92915050565b7f4e487b7100000000000000000000000000000000000000000000000000000000600052602160045260246000fd5b6004811061258b5761258a61254b565b5b50565b600081905061259c8261257a565b919050565b60006125ac8261258e565b9050919050565b6125bc816125a1565b82525050565b600060c0820190506125d7600083018961230a565b6125e46020830188612521565b6125f1604083018761230a565b6125fe60608301866122fb565b81810360808301526126108185612450565b905061261f60a08301846125b3565b979650505050505050565b600080604083850312156126415761264061206f565b5b600061264f8582860161209a565b925050602083013567ffffffffffffffff8111156126705761266f612074565b5b61267c858286016121c7565b9150509250929050565b6000806040838503121561269d5761269c61206f565b5b60006126ab8582860161209a565b92505060206126bc8582860161209a565b9150509250929050565b7f4f6e6c7920726567697374657265642070726f7669646572732063616e20636160008201527f6c6c20746869732066756e6374696f6e00000000000000000000000000000000602082015250565b6000612722603083612415565b915061272d826126c6565b604082019050919050565b6000602082019050818103600083015261275181612715565b9050919050565b7f4d656d626572206e6f7420726567697374657265640000000000000000000000600082015250565b600061278e601583612415565b915061279982612758565b602082019050919050565b600060208201905081810360008301526127bd81612781565b9050919050565b7f436c61696d20616d6f756e7420746f6f20686967680000000000000000000000600082015250565b60006127fa601583612415565b9150612805826127c4565b602082019050919050565b60006020820190508181036000830152612829816127ed565b9050919050565b7f4e487b7100000000000000000000000000000000000000000000000000000000600052601160045260246000fd5b600061286a82612079565b915061287583612079565b925082820390508181111561288d5761288c612830565b5b92915050565b7f436f6e747269627574696f6e206e6f7420757020746f20646174650000000000600082015250565b60006128c9601b83612415565b91506128d482612893565b602082019050919050565b600060208201905081810360008301526128f8816128bc565b9050919050565b7f4e487b7100000000000000000000000000000000000000000000000000000000600052601260045260246000fd5b600061293982612079565b915061294483612079565b925082612954576129536128ff565b5b828204905092915050565b600061296a82612079565b915061297583612079565b925082820190508082111561298d5761298c612830565b5b92915050565b7f596561726c7920636c61696d206c696d69742065786365656465640000000000600082015250565b60006129c9601b83612415565b91506129d482612993565b602082019050919050565b600060208201905081810360008301526129f8816129bc565b9050919050565b7f4e487b7100000000000000000000000000000000000000000000000000000000600052602260045260246000fd5b60006002820490506001821680612a4657607f821691505b602082108103612a5957612a586129ff565b5b50919050565b60008190508160005260206000209050919050565b60006020601f8301049050919050565b600082821b905092915050565b600060088302612ac17fffffffffffffffffffffffffffffffffffffffffffffffffffffffffffffffff82612a84565b612acb8683612a84565b95508019841693508086168417925050509392505050565b6000819050919050565b6000612b08612b03612afe84612079565b612ae3565b612079565b9050919050565b6000819050919050565b612b2283612aed565b612b36612b2e82612b0f565b848454612a91565b825550505050565b600090565b612b4b612b3e565b612b56818484612b19565b505050565b5b81811015612b7a57612b6f600082612b43565b600181019050612b5c565b5050565b601f821115612bbf57612b9081612a5f565b612b9984612a74565b81016020851015612ba8578190505b612bbc612bb485612a74565b830182612b5b565b50505b505050565b600082821c905092915050565b6000612be260001984600802612bc4565b1980831691505092915050565b6000612bfb8383612bd1565b9150826002028217905092915050565b612c148261240a565b67ffffffffffffffff811115612c2d57612c2c6120ca565b5b612c378254612a2e565b612c42828285612b7e565b600060209050601f831160018114612c755760008415612c63578287015190505b612c6d8582612bef565b865550612cd5565b601f198416612c8386612a5f565b60005b82811015612cab57848901518255600182019150602085019450602081019050612c86565b86831015612cc85784890151612cc4601f891682612bd1565b8355505b6001600288020188555050505b505050505050565b6000606082019050612cf2600083018661230a565b612cff6020830185612521565b612d0c604083018461230a565b949350505050565b6000602082019050612d2960008301846125b3565b92915050565b7f50726f766964657220616c726561647920726567697374657265640000000000600082015250565b6000612d65601b83612415565b9150612d7082612d2f565b602082019050919050565b60006020820190508181036000830152612d9481612d58565b9050919050565b7f496e73756666696369656e742062616c616e6365000000000000000000000000600082015250565b6000612dd1601483612415565b9150612ddc82612d9b565b602082019050919050565b60006020820190508181036000830152612e0081612dc4565b9050919050565b7f496e76616c6964206e6174696f6e616c20494400000000000000000000000000600082015250565b6000612e3d601383612415565b9150612e4882612e07565b602082019050919050565b60006020820190508181036000830152612e6c81612e30565b9050919050565b7f4d656d626572206e6f742072656769737465726564206f7220696e616374697660008201527f6500000000000000000000000000000000000000000000000000000000000000602082015250565b6000612ecf602183612415565b9150612eda82612e73565b604082019050919050565b60006020820190508181036000830152612efe81612ec2565b9050919050565b7f496e636f727265637420636f6e747269627574696f6e20616d6f756e74000000600082015250565b6000612f3b601d83612415565b9150612f4682612f05565b602082019050919050565b60006020820190508181036000830152612f6a81612f2e565b9050919050565b6000604082019050612f86600083018561230a565b612f936020830184612521565b9392505050565b7f496e76616c696420636c61696d20494400000000000000000000000000000000600082015250565b6000612fd0601083612415565b9150612fdb82612f9a565b602082019050919050565b60006020820190508181036000830152612fff81612fc3565b9050919050565b7f4e487b7100000000000000000000000000000000000000000000000000000000600052603260045260246000fd5b7f436c61696d206973206e6f7420756e6465722072657669657700000000000000600082015250565b600061306b601983612415565b915061307682613035565b602082019050919050565b6000602082019050818103600083015261309a8161305e565b9050919050565b7f496e76616c6964206e6577207374617475730000000000000000000000000000600082015250565b60006130d7601283612415565b91506130e2826130a1565b602082019050919050565b60006020820190508181036000830152613106816130ca565b9050919050565b7f50726f7669646572206e6f742072656769737465726564000000000000000000600082015250565b6000613143601783612415565b915061314e8261310d565b602082019050919050565b6000602082019050818103600083015261317281613136565b9050919050565b600060408201905061318e6000830185612521565b61319b602083018461230a565b9392505050565b7f4e616d652063616e6e6f7420626520656d707479000000000000000000000000600082015250565b60006131d8601483612415565b91506131e3826131a2565b602082019050919050565b60006020820190508181036000830152613207816131cb565b9050919050565b600060208201905081810360008301526132288184612450565b905092915050565b7f436c61696d20616c726561647920706169640000000000000000000000000000600082015250565b6000613266601283612415565b915061327182613230565b602082019050919050565b6000602082019050818103600083015261329581613259565b9050919050565b7f436c61696d206e6f7420617070726f7665640000000000000000000000000000600082015250565b60006132d2601283612415565b91506132dd8261329c565b602082019050919050565b60006020820190508181036000830152613301816132c5565b9050919050565b7f496e73756666696369656e7420636f6e74726163742062616c616e6365000000600082015250565b600061333e601d83612415565b915061334982613308565b602082019050919050565b6000602082019050818103600083015261336d81613331565b905091905056fea2646970667358221220122482279e7c2f71ee04bdc84f8f89e35fdd49743dc2fc32bcc179aaddfa0e2a64736f6c63430008140033",
    "linkReferences": {},
    "deployedLinkReferences": {}
}