{
  "_format": "hh-sol-artifact-1",
  "contractName": "NHIF",
  "sourceName": "contracts/NHIF.sol",
  "abi": [
    {
      "inputs": [
        {
          "internalType": "uint256",
          "name": "_monthlyContributionWei",
          "type": "uint256"
        }
      ],
      "stateMutability": "nonpayable",
      "type": "constructor"
    },
    {
      "inputs": [
        {
          "internalType": "address",
          "name": "owner",
          "type": "address"
        }
      ],
      "name": "OwnableInvalidOwner",
      "type": "error"
    },
    {
      "inputs": [
        {
          "internalType": "address",
          "name": "account",
          "type": "address"
        }
      ],
      "name": "OwnableUnauthorizedAccount",
      "type": "error"
    },
    {
      "inputs": [],
      "name": "ReentrancyGuardReentrantCall",
      "type": "error"
    },
    {
      "anonymous": false,
      "inputs": [
        {
          "indexed": true,
          "internalType": "uint256",
          "name": "claimId",
          "type": "uint256"
        },
        {
          "indexed": false,
          "internalType": "address",
          "name": "provider",
          "type": "address"
        },
        {
          "indexed": false,
          "internalType": "uint256",
          "name": "amount",
          "type": "uint256"
        }
      ],
      "name": "ClaimPaid",
      "type": "event"
    },
    {
      "anonymous": false,
      "inputs": [
        {
          "indexed": true,
          "internalType": "uint256",
          "name": "claimId",
          "type": "uint256"
        },
        {
          "indexed": false,
          "internalType": "enum NHIF.ClaimStatus",
          "name": "newStatus",
          "type": "uint8"
        }
      ],
      "name": "ClaimStatusUpdated",
      "type": "event"
    },
    {
      "anonymous": false,
      "inputs": [
        {
          "indexed": true,
          "internalType": "uint256",
          "name": "claimId",
          "type": "uint256"
        },
        {
          "indexed": false,
          "internalType": "uint256",
          "name": "nationalId",
          "type": "uint256"
        },
        {
          "indexed": false,
          "internalType": "address",
          "name": "provider",
          "type": "address"
        },
        {
          "indexed": false,
          "internalType": "uint256",
          "name": "amount",
          "type": "uint256"
        },
        {
          "indexed": false,
          "internalType": "string",
          "name": "serviceType",
          "type": "string"
        }
      ],
      "name": "ClaimSubmitted",
      "type": "event"
    },
    {
      "anonymous": false,
      "inputs": [
        {
          "indexed": true,
          "internalType": "uint256",
          "name": "nationalId",
          "type": "uint256"
        },
        {
          "indexed": false,
          "internalType": "uint256",
          "name": "amount",
          "type": "uint256"
        },
        {
          "indexed": false,
          "internalType": "address",
          "name": "payer",
          "type": "address"
        }
      ],
      "name": "ContributionPaid",
      "type": "event"
    },
    {
      "anonymous": false,
      "inputs": [
        {
          "indexed": true,
          "internalType": "uint256",
          "name": "nationalId",
          "type": "uint256"
        },
        {
          "indexed": false,
          "internalType": "string",
          "name": "name",
          "type": "string"
        }
      ],
      "name": "MemberRegistered",
      "type": "event"
    },
    {
      "anonymous": false,
      "inputs": [
        {
          "indexed": true,
          "internalType": "address",
          "name": "previousOwner",
          "type": "address"
        },
        {
          "indexed": true,
          "internalType": "address",
          "name": "newOwner",
          "type": "address"
        }
      ],
      "name": "OwnershipTransferred",
      "type": "event"
    },
    {
      "anonymous": false,
      "inputs": [
        {
          "indexed": false,
          "internalType": "address",
          "name": "provider",
          "type": "address"
        }
      ],
      "name": "ProviderRegistered",
      "type": "event"
    },
    {
      "anonymous": false,
      "inputs": [
        {
          "indexed": false,
          "internalType": "address",
          "name": "provider",
          "type": "address"
        }
      ],
      "name": "ProviderRemoved",
      "type": "event"
    },
    {
      "anonymous": false,
      "inputs": [
        {
          "indexed": false,
          "internalType": "address",
          "name": "provider",
          "type": "address"
        },
        {
          "indexed": false,
          "internalType": "uint256",
          "name": "amount",
          "type": "uint256"
        }
      ],
      "name": "ProviderWithdrawal",
      "type": "event"
    },
    {
      "inputs": [],
      "name": "AUTO_APPROVE_LIMIT",
      "outputs": [
        {
          "internalType": "uint256",
          "name": "",
          "type": "uint256"
        }
      ],
      "stateMutability": "view",
      "type": "function"
    },
    {
      "inputs": [],
      "name": "MAX_CLAIM_AMOUNT",
      "outputs": [
        {
          "internalType": "uint256",
          "name": "",
          "type": "uint256"
        }
      ],
      "stateMutability": "view",
      "type": "function"
    },
    {
      "inputs": [],
      "name": "YEARLY_CLAIM_LIMIT",
      "outputs": [
        {
          "internalType": "uint256",
          "name": "",
          "type": "uint256"
        }
      ],
      "stateMutability": "view",
      "type": "function"
    },
    {
      "inputs": [
        {
          "internalType": "uint256",
          "name": "",
          "type": "uint256"
        }
      ],
      "name": "claims",
      "outputs": [
        {
          "internalType": "uint256",
          "name": "nationalId",
          "type": "uint256"
        },
        {
          "internalType": "address",
          "name": "provider",
          "type": "address"
        },
        {
          "internalType": "uint256",
          "name": "amount",
          "type": "uint256"
        },
        {
          "internalType": "bool",
          "name": "isPaid",
          "type": "bool"
        },
        {
          "internalType": "string",
          "name": "ipfsHash",
          "type": "string"
        },
        {
          "internalType": "enum NHIF.ClaimStatus",
          "name": "status",
          "type": "uint8"
        },
        {
          "internalType": "string",
          "name": "serviceType",
          "type": "string"
        }
      ],
      "stateMutability": "view",
      "type": "function"
    },
    {
      "inputs": [
        {
          "internalType": "address",
          "name": "_address",
          "type": "address"
        }
      ],
      "name": "getAddressBalance",
      "outputs": [
        {
          "internalType": "uint256",
          "name": "",
          "type": "uint256"
        }
      ],
      "stateMutability": "view",
      "type": "function"
    },
    {
      "inputs": [],
      "name": "getAllClaims",
      "outputs": [
        {
          "internalType": "uint256[]",
          "name": "",
          "type": "uint256[]"
        },
        {
          "internalType": "address[]",
          "name": "",
          "type": "address[]"
        },
        {
          "internalType": "uint256[]",
          "name": "",
          "type": "uint256[]"
        },
        {
          "internalType": "string[]",
          "name": "",
          "type": "string[]"
        },
        {
          "internalType": "enum NHIF.ClaimStatus[]",
          "name": "",
          "type": "uint8[]"
        },
        {
          "internalType": "string[]",
          "name": "",
          "type": "string[]"
        }
      ],
      "stateMutability": "view",
      "type": "function"
    },
    {
      "inputs": [],
      "name": "getClaimsCount",
      "outputs": [
        {
          "internalType": "uint256",
          "name": "",
          "type": "uint256"
        }
      ],
      "stateMutability": "view",
      "type": "function"
    },
    {
      "inputs": [
        {
          "internalType": "uint256",
          "name": "_nationalId",
          "type": "uint256"
        }
      ],
      "name": "getMemberStatus",
      "outputs": [
        {
          "internalType": "bool",
          "name": "isActive",
          "type": "bool"
        },
        {
          "internalType": "string",
          "name": "name",
          "type": "string"
        },
        {
          "internalType": "uint256",
          "name": "lastContributionDate",
          "type": "uint256"
        },
        {
          "internalType": "uint256",
          "name": "totalContributions",
          "type": "uint256"
        }
      ],
      "stateMutability": "view",
      "type": "function"
    },
    {
      "inputs": [
        {
          "internalType": "uint256",
          "name": "_nationalId",
          "type": "uint256"
        }
      ],
      "name": "getMemberTotalContributions",
      "outputs": [
        {
          "internalType": "uint256",
          "name": "",
          "type": "uint256"
        }
      ],
      "stateMutability": "view",
      "type": "function"
    },
    {
      "inputs": [],
      "name": "getMonthlyContribution",
      "outputs": [
        {
          "internalType": "uint256",
          "name": "",
          "type": "uint256"
        }
      ],
      "stateMutability": "view",
      "type": "function"
    },
    {
      "inputs": [
        {
          "internalType": "address",
          "name": "_provider",
          "type": "address"
        }
      ],
      "name": "getProviderBalance",
      "outputs": [
        {
          "internalType": "uint256",
          "name": "",
          "type": "uint256"
        }
      ],
      "stateMutability": "view",
      "type": "function"
    },
    {
      "inputs": [
        {
          "internalType": "uint256",
          "name": "_nationalId",
          "type": "uint256"
        }
      ],
      "name": "isMemberActive",
      "outputs": [
        {
          "internalType": "bool",
          "name": "",
          "type": "bool"
        }
      ],
      "stateMutability": "view",
      "type": "function"
    },
    {
      "inputs": [
        {
          "internalType": "address",
          "name": "_provider",
          "type": "address"
        }
      ],
      "name": "isRegisteredProvider",
      "outputs": [
        {
          "internalType": "bool",
          "name": "",
          "type": "bool"
        }
      ],
      "stateMutability": "view",
      "type": "function"
    },
    {
      "inputs": [
        {
          "internalType": "uint256",
          "name": "_nationalId",
          "type": "uint256"
        }
      ],
      "name": "makeContribution",
      "outputs": [],
      "stateMutability": "payable",
      "type": "function"
    },
    {
      "inputs": [
        {
          "internalType": "uint256",
          "name": "",
          "type": "uint256"
        },
        {
          "internalType": "uint256",
          "name": "",
          "type": "uint256"
        }
      ],
      "name": "memberYearlyClaims",
      "outputs": [
        {
          "internalType": "uint256",
          "name": "",
          "type": "uint256"
        }
      ],
      "stateMutability": "view",
      "type": "function"
    },
    {
      "inputs": [
        {
          "internalType": "uint256",
          "name": "",
          "type": "uint256"
        }
      ],
      "name": "members",
      "outputs": [
        {
          "internalType": "string",
          "name": "name",
          "type": "string"
        },
        {
          "internalType": "uint256",
          "name": "lastContributionDate",
          "type": "uint256"
        },
        {
          "internalType": "bool",
          "name": "isActive",
          "type": "bool"
        },
        {
          "internalType": "uint256",
          "name": "totalContributions",
          "type": "uint256"
        }
      ],
      "stateMutability": "view",
      "type": "function"
    },
    {
      "inputs": [],
      "name": "monthlyContributionWei",
      "outputs": [
        {
          "internalType": "uint256",
          "name": "",
          "type": "uint256"
        }
      ],
      "stateMutability": "view",
      "type": "function"
    },
    {
      "inputs": [],
      "name": "owner",
      "outputs": [
        {
          "internalType": "address",
          "name": "",
          "type": "address"
        }
      ],
      "stateMutability": "view",
      "type": "function"
    },
    {
      "inputs": [
        {
          "internalType": "uint256",
          "name": "_amount",
          "type": "uint256"
        }
      ],
      "name": "providerWithdraw",
      "outputs": [],
      "stateMutability": "nonpayable",
      "type": "function"
    },
    {
      "inputs": [
        {
          "internalType": "address",
          "name": "",
          "type": "address"
        }
      ],
      "name": "providers",
      "outputs": [
        {
          "internalType": "bool",
          "name": "isRegistered",
          "type": "bool"
        },
        {
          "internalType": "uint256",
          "name": "balance",
          "type": "uint256"
        }
      ],
      "stateMutability": "view",
      "type": "function"
    },
    {
      "inputs": [
        {
          "internalType": "uint256",
          "name": "_nationalId",
          "type": "uint256"
        },
        {
          "internalType": "string",
          "name": "_name",
          "type": "string"
        }
      ],
      "name": "registerMember",
      "outputs": [
        {
          "internalType": "bool",
          "name": "",
          "type": "bool"
        }
      ],
      "stateMutability": "nonpayable",
      "type": "function"
    },
    {
      "inputs": [
        {
          "internalType": "address",
          "name": "_provider",
          "type": "address"
        }
      ],
      "name": "registerProvider",
      "outputs": [],
      "stateMutability": "nonpayable",
      "type": "function"
    },
    {
      "inputs": [
        {
          "internalType": "address",
          "name": "_provider",
          "type": "address"
        }
      ],
      "name": "removeProvider",
      "outputs": [],
      "stateMutability": "nonpayable",
      "type": "function"
    },
    {
      "inputs": [],
      "name": "renounceOwnership",
      "outputs": [],
      "stateMutability": "nonpayable",
      "type": "function"
    },
    {
      "inputs": [
        {
          "internalType": "uint256",
          "name": "_claimId",
          "type": "uint256"
        },
        {
          "internalType": "enum NHIF.ClaimStatus",
          "name": "_newStatus",
          "type": "uint8"
        }
      ],
      "name": "reviewClaim",
      "outputs": [],
      "stateMutability": "nonpayable",
      "type": "function"
    },
    {
      "inputs": [],
      "name": "selfRegisterProvider",
      "outputs": [],
      "stateMutability": "nonpayable",
      "type": "function"
    },
    {
      "inputs": [
        {
          "internalType": "uint256",
          "name": "_newContributionWei",
          "type": "uint256"
        }
      ],
      "name": "setMonthlyContribution",
      "outputs": [],
      "stateMutability": "nonpayable",
      "type": "function"
    },
    {
      "inputs": [
        {
          "internalType": "uint256",
          "name": "_nationalId",
          "type": "uint256"
        },
        {
          "internalType": "uint256",
          "name": "_amount",
          "type": "uint256"
        },
        {
          "internalType": "string",
          "name": "_ipfsHash",
          "type": "string"
        },
        {
          "internalType": "string",
          "name": "_serviceType",
          "type": "string"
        }
      ],
      "name": "submitClaim",
      "outputs": [],
      "stateMutability": "nonpayable",
      "type": "function"
    },
    {
      "inputs": [
        {
          "internalType": "address",
          "name": "newOwner",
          "type": "address"
        }
      ],
      "name": "transferOwnership",
      "outputs": [],
      "stateMutability": "nonpayable",
      "type": "function"
    },
    {
      "inputs": [
        {
          "internalType": "uint256",
          "name": "_amount",
          "type": "uint256"
        }
      ],
      "name": "withdrawFunds",
      "outputs": [],
      "stateMutability": "nonpayable",
      "type": "function"
    },
    {
      "stateMutability": "payable",
      "type": "receive"
    }
  ],
  "bytecode": "0x60806040523480156200001157600080fd5b5060405162004050380380620040508339818101604052810190620000379190620001db565b336001600081905550600073ffffffffffffffffffffffffffffffffffffffff168173ffffffffffffffffffffffffffffffffffffffff1603620000b55760006040517f1e4fbdf7000000000000000000000000000000000000000000000000000000008152600401620000ac919062000252565b60405180910390fd5b620000c681620000d560201b60201c565b5080600281905550506200026f565b6000600160009054906101000a900473ffffffffffffffffffffffffffffffffffffffff16905081600160006101000a81548173ffffffffffffffffffffffffffffffffffffffff021916908373ffffffffffffffffffffffffffffffffffffffff1602179055508173ffffffffffffffffffffffffffffffffffffffff168173ffffffffffffffffffffffffffffffffffffffff167f8be0079c531659141344cd1fd0a4f28419497f9722a3daafe3b4186f6b6457e060405160405180910390a35050565b600080fd5b6000819050919050565b620001b581620001a0565b8114620001c157600080fd5b50565b600081519050620001d581620001aa565b92915050565b600060208284031215620001f457620001f36200019b565b5b60006200020484828501620001c4565b91505092915050565b600073ffffffffffffffffffffffffffffffffffffffff82169050919050565b60006200023a826200020d565b9050919050565b6200024c816200022d565b82525050565b600060208201905062000269600083018462000241565b92915050565b613dd1806200027f6000396000f3fe6080604052600436106101d15760003560e01c80637a5cfd40116100f7578063a888c2cd11610095578063d90a352811610064578063d90a3528146106aa578063e362b4f7146106e7578063ea4d979a14610712578063f2fde38b1461074f576101d8565b8063a888c2cd146105d6578063b1aed43e14610619578063d291babd14610644578063d3ffde951461066d576101d8565b8063832eea0c116100d1578063832eea0c1461051c5780638a355a57146105595780638da5cb5b146105825780639e2176f9146105ad576101d8565b80637a5cfd401461049a5780637d0d719b146104b157806381054ac4146104f1576101d8565b80633d921ddf1161016f5780635b23c27d1161013e5780635b23c27d146103e85780635daf08ca14610418578063715018a61461045857806373e679381461046f576101d8565b80633d921ddf1461031a5780633ef8f2ba146103435780634186c4e81461036e57806351ca236f146103ab576101d8565b806335046722116101ab578063350467221461026d578063360a2bcb146102aa5780633a59f4f3146102c65780633c20283c146102ef576101d8565b80630787bc27146101dd5780630e2600161461021b578063155dd5ee14610244576101d8565b366101d857005b600080fd5b3480156101e957600080fd5b5061020460048036038101906101ff919061268b565b610778565b6040516102129291906126ec565b60405180910390f35b34801561022757600080fd5b50610242600480360381019061023d919061268b565b6107a9565b005b34801561025057600080fd5b5061026b60048036038101906102669190612741565b610900565b005b34801561027957600080fd5b50610294600480360381019061028f919061268b565b61099c565b6040516102a1919061276e565b60405180910390f35b6102c460048036038101906102bf9190612741565b6109bd565b005b3480156102d257600080fd5b506102ed60048036038101906102e891906127ae565b610b21565b005b3480156102fb57600080fd5b50610304610d42565b604051610311919061276e565b60405180910390f35b34801561032657600080fd5b50610341600480360381019061033c9190612741565b610d50565b005b34801561034f57600080fd5b50610358610d62565b604051610365919061276e565b60405180910390f35b34801561037a57600080fd5b5061039560048036038101906103909190612741565b610d6f565b6040516103a291906127ee565b60405180910390f35b3480156103b757600080fd5b506103d260048036038101906103cd919061268b565b610d9c565b6040516103df91906127ee565b60405180910390f35b3480156103f457600080fd5b506103fd610df5565b60405161040f96959493929190612bfd565b60405180910390f35b34801561042457600080fd5b5061043f600480360381019061043a9190612741565b6112c0565b60405161044f9493929190612cd2565b60405180910390f35b34801561046457600080fd5b5061046d611385565b005b34801561047b57600080fd5b50610484611399565b604051610491919061276e565b60405180910390f35b3480156104a657600080fd5b506104af6113a6565b005b3480156104bd57600080fd5b506104d860048036038101906104d39190612741565b6114f4565b6040516104e89493929190612d1e565b60405180910390f35b3480156104fd57600080fd5b506105066115ce565b604051610513919061276e565b60405180910390f35b34801561052857600080fd5b50610543600480360381019061053e919061268b565b6115d8565b604051610550919061276e565b60405180910390f35b34801561056557600080fd5b50610580600480360381019061057b919061268b565b611624565b005b34801561058e57600080fd5b50610597611750565b6040516105a49190612d79565b60405180910390f35b3480156105b957600080fd5b506105d460048036038101906105cf9190612741565b61177a565b005b3480156105e257600080fd5b506105fd60048036038101906105f89190612741565b61197a565b6040516106109796959493929190612da3565b60405180910390f35b34801561062557600080fd5b5061062e611b16565b60405161063b919061276e565b60405180910390f35b34801561065057600080fd5b5061066b60048036038101906106669190612f55565b611b1c565b005b34801561067957600080fd5b50610694600480360381019061068f9190612ff4565b611fde565b6040516106a191906127ee565b60405180910390f35b3480156106b657600080fd5b506106d160048036038101906106cc9190613050565b612161565b6040516106de919061276e565b60405180910390f35b3480156106f357600080fd5b506106fc612186565b604051610709919061276e565b60405180910390f35b34801561071e57600080fd5b5061073960048036038101906107349190612741565b612193565b604051610746919061276e565b60405180910390f35b34801561075b57600080fd5b506107766004803603810190610771919061268b565b6121b3565b005b60046020528060005260406000206000915090508060000160009054906101000a900460ff16908060010154905082565b6107b1612239565b600460008273ffffffffffffffffffffffffffffffffffffffff1673ffffffffffffffffffffffffffffffffffffffff16815260200190815260200160002060000160009054906101000a900460ff1615610841576040517f08c379a0000000000000000000000000000000000000000000000000000000008152600401610838906130dc565b60405180910390fd5b60405180604001604052806001151581526020016000815250600460008373ffffffffffffffffffffffffffffffffffffffff1673ffffffffffffffffffffffffffffffffffffffff16815260200190815260200160002060008201518160000160006101000a81548160ff021916908315150217905550602082015181600101559050507f70abce74777b3838ae60a33a6b9a87d9d25532668fe4fea548554c55868579c0816040516108f59190612d79565b60405180910390a150565b610908612239565b4781111561094b576040517f08c379a000000000000000000000000000000000000000000000000000000000815260040161094290613148565b60405180910390fd5b610953611750565b73ffffffffffffffffffffffffffffffffffffffff166108fc829081150290604051600060405180830381858888f19350505050158015610998573d6000803e3d6000fd5b5050565b60008173ffffffffffffffffffffffffffffffffffffffff16319050919050565b6109c56122c0565b60008103610a08576040517f08c379a00000000000000000000000000000000000000000000000000000000081526004016109ff906131b4565b60405180910390fd5b610a1181610d6f565b610a50576040517f08c379a0000000000000000000000000000000000000000000000000000000008152600401610a4790613246565b60405180910390fd5b6002543414610a94576040517f08c379a0000000000000000000000000000000000000000000000000000000008152600401610a8b906132b2565b60405180910390fd5b42600360008381526020019081526020016000206001018190555034600360008381526020019081526020016000206003016000828254610ad59190613301565b92505081905550807feef6ff3446b5ececc6a644fe5d1ac01057cbdab655d8caf13defa143433c2bc93433604051610b0e929190613335565b60405180910390a2610b1e612306565b50565b610b29612239565b6006805490508210610b70576040517f08c379a0000000000000000000000000000000000000000000000000000000008152600401610b67906133aa565b60405180910390fd5b600060068381548110610b8657610b856133ca565b5b9060005260206000209060070201905060016003811115610baa57610ba9612b03565b5b8160050160009054906101000a900460ff166003811115610bce57610bcd612b03565b5b14610c0e576040517f08c379a0000000000000000000000000000000000000000000000000000000008152600401610c0590613445565b60405180910390fd5b60026003811115610c2257610c21612b03565b5b826003811115610c3557610c34612b03565b5b1480610c645750600380811115610c4f57610c4e612b03565b5b826003811115610c6257610c61612b03565b5b145b610ca3576040517f08c379a0000000000000000000000000000000000000000000000000000000008152600401610c9a906134b1565b60405180910390fd5b818160050160006101000a81548160ff02191690836003811115610cca57610cc9612b03565b5b0217905550827f2e7de2377c1e6f85a268dbe00519c60d65c9e38570a118be0eb07feb07fc89be83604051610cff91906134d1565b60405180910390a260026003811115610d1b57610d1a612b03565b5b826003811115610d2e57610d2d612b03565b5b03610d3d57610d3c83612310565b5b505050565b69010f0cf064dd5920000081565b610d58612239565b8060028190555050565b6000600680549050905090565b60006003600083815260200190815260200160002060020160009054906101000a900460ff169050919050565b6000600460008373ffffffffffffffffffffffffffffffffffffffff1673ffffffffffffffffffffffffffffffffffffffff16815260200190815260200160002060000160009054906101000a900460ff169050919050565b6060806060806060806000600680549050905060008167ffffffffffffffff811115610e2457610e23612e2a565b5b604051908082528060200260200182016040528015610e525781602001602082028036833780820191505090505b50905060008267ffffffffffffffff811115610e7157610e70612e2a565b5b604051908082528060200260200182016040528015610e9f5781602001602082028036833780820191505090505b50905060008367ffffffffffffffff811115610ebe57610ebd612e2a565b5b604051908082528060200260200182016040528015610eec5781602001602082028036833780820191505090505b50905060008467ffffffffffffffff811115610f0b57610f0a612e2a565b5b604051908082528060200260200182016040528015610f3e57816020015b6060815260200190600190039081610f295790505b50905060008567ffffffffffffffff811115610f5d57610f5c612e2a565b5b604051908082528060200260200182016040528015610f8b5781602001602082028036833780820191505090505b50905060008667ffffffffffffffff811115610faa57610fa9612e2a565b5b604051908082528060200260200182016040528015610fdd57816020015b6060815260200190600190039081610fc85790505b50905060005b8781101561129e57600060068281548110611001576110006133ca565b5b9060005260206000209060070201905081888381518110611025576110246133ca565b5b6020026020010181815250508060010160009054906101000a900473ffffffffffffffffffffffffffffffffffffffff16878381518110611069576110686133ca565b5b602002602001019073ffffffffffffffffffffffffffffffffffffffff16908173ffffffffffffffffffffffffffffffffffffffff168152505080600001548683815181106110bb576110ba6133ca565b5b602002602001018181525050600360008260000154815260200190815260200160002060000180546110ec9061351b565b80601f01602080910402602001604051908101604052809291908181526020018280546111189061351b565b80156111655780601f1061113a57610100808354040283529160200191611165565b820191906000526020600020905b81548152906001019060200180831161114857829003601f168201915b505050505085838151811061117d5761117c6133ca565b5b60200260200101819052508060050160009054906101000a900460ff168483815181106111ad576111ac6133ca565b5b602002602001019060038111156111c7576111c6612b03565b5b908160038111156111db576111da612b03565b5b815250508060060180546111ee9061351b565b80601f016020809104026020016040519081016040528092919081815260200182805461121a9061351b565b80156112675780601f1061123c57610100808354040283529160200191611267565b820191906000526020600020905b81548152906001019060200180831161124a57829003601f168201915b505050505083838151811061127f5761127e6133ca565b5b60200260200101819052505080806112969061354c565b915050610fe3565b508585858585859c509c509c509c509c509c5050505050505050909192939495565b60036020528060005260406000206000915090508060000180546112e39061351b565b80601f016020809104026020016040519081016040528092919081815260200182805461130f9061351b565b801561135c5780601f106113315761010080835404028352916020019161135c565b820191906000526020600020905b81548152906001019060200180831161133f57829003601f168201915b5050505050908060010154908060020160009054906101000a900460ff16908060030154905084565b61138d612239565b611397600061254b565b565b68056bc75e2d6310000081565b600460003373ffffffffffffffffffffffffffffffffffffffff1673ffffffffffffffffffffffffffffffffffffffff16815260200190815260200160002060000160009054906101000a900460ff1615611436576040517f08c379a000000000000000000000000000000000000000000000000000000000815260040161142d906130dc565b60405180910390fd5b60405180604001604052806001151581526020016000815250600460003373ffffffffffffffffffffffffffffffffffffffff1673ffffffffffffffffffffffffffffffffffffffff16815260200190815260200160002060008201518160000160006101000a81548160ff021916908315150217905550602082015181600101559050507f70abce74777b3838ae60a33a6b9a87d9d25532668fe4fea548554c55868579c0336040516114ea9190612d79565b60405180910390a1565b6000606060008060006003600087815260200190815260200160002090508060020160009054906101000a900460ff16816000018260010154836003015482805461153e9061351b565b80601f016020809104026020016040519081016040528092919081815260200182805461156a9061351b565b80156115b75780601f1061158c576101008083540402835291602001916115b7565b820191906000526020600020905b81548152906001019060200180831161159a57829003601f168201915b505050505092509450945094509450509193509193565b6000600254905090565b6000600460008373ffffffffffffffffffffffffffffffffffffffff1673ffffffffffffffffffffffffffffffffffffffff168152602001908152602001600020600101549050919050565b61162c612239565b600460008273ffffffffffffffffffffffffffffffffffffffff1673ffffffffffffffffffffffffffffffffffffffff16815260200190815260200160002060000160009054906101000a900460ff166116bb576040517f08c379a00000000000000000000000000000000000000000000000000000000081526004016116b2906135e0565b60405180910390fd5b6000600460008373ffffffffffffffffffffffffffffffffffffffff1673ffffffffffffffffffffffffffffffffffffffff16815260200190815260200160002060000160006101000a81548160ff0219169083151502179055507f1589f8555933761a3cff8aa925061be3b46e2dd43f621322ab611d300f62b1d9816040516117459190612d79565b60405180910390a150565b6000600160009054906101000a900473ffffffffffffffffffffffffffffffffffffffff16905090565b6117826122c0565b600460003373ffffffffffffffffffffffffffffffffffffffff1673ffffffffffffffffffffffffffffffffffffffff16815260200190815260200160002060000160009054906101000a900460ff16611811576040517f08c379a0000000000000000000000000000000000000000000000000000000008152600401611808906135e0565b60405180910390fd5b80600460003373ffffffffffffffffffffffffffffffffffffffff1673ffffffffffffffffffffffffffffffffffffffff168152602001908152602001600020600101541015611896576040517f08c379a000000000000000000000000000000000000000000000000000000000815260040161188d90613148565b60405180910390fd5b80600460003373ffffffffffffffffffffffffffffffffffffffff1673ffffffffffffffffffffffffffffffffffffffff16815260200190815260200160002060010160008282546118e89190613600565b925050819055503373ffffffffffffffffffffffffffffffffffffffff166108fc829081150290604051600060405180830381858888f19350505050158015611935573d6000803e3d6000fd5b507f2a8a6dc25237dc0f0fd20cc0ee5723bf38644ce2748cf797fd9c4933123ea6e63382604051611967929190613634565b60405180910390a1611977612306565b50565b6006818154811061198a57600080fd5b90600052602060002090600702016000915090508060000154908060010160009054906101000a900473ffffffffffffffffffffffffffffffffffffffff16908060020154908060030160009054906101000a900460ff16908060040180546119f29061351b565b80601f0160208091040260200160405190810160405280929190818152602001828054611a1e9061351b565b8015611a6b5780601f10611a4057610100808354040283529160200191611a6b565b820191906000526020600020905b815481529060010190602001808311611a4e57829003601f168201915b5050505050908060050160009054906101000a900460ff1690806006018054611a939061351b565b80601f0160208091040260200160405190810160405280929190818152602001828054611abf9061351b565b8015611b0c5780601f10611ae157610100808354040283529160200191611b0c565b820191906000526020600020905b815481529060010190602001808311611aef57829003601f168201915b5050505050905087565b60025481565b600460003373ffffffffffffffffffffffffffffffffffffffff1673ffffffffffffffffffffffffffffffffffffffff16815260200190815260200160002060000160009054906101000a900460ff16611bab576040517f08c379a0000000000000000000000000000000000000000000000000000000008152600401611ba2906136cf565b60405180910390fd5b611bb36122c0565b6003600085815260200190815260200160002060020160009054906101000a900460ff16611c16576040517f08c379a0000000000000000000000000000000000000000000000000000000008152600401611c0d9061373b565b60405180910390fd5b683635c9adc5dea00000831115611c62576040517f08c379a0000000000000000000000000000000000000000000000000000000008152600401611c59906137a7565b60405180910390fd5b62278d00600360008681526020019081526020016000206001015442611c889190613600565b1115611cc9576040517f08c379a0000000000000000000000000000000000000000000000000000000008152600401611cc090613813565b60405180910390fd5b60006107b26301e1338042611cde9190613862565b611ce89190613301565b9050836005600087815260200190815260200160002060008381526020019081526020016000206000828254611d1e9190613301565b9250508190555069010f0cf064dd59200000600560008781526020019081526020016000206000838152602001908152602001600020541115611d96576040517f08c379a0000000000000000000000000000000000000000000000000000000008152600401611d8d906138df565b60405180910390fd5b60006006805490509050600068056bc75e2d63100000861115611dba576001611dbd565b60025b905060066040518060e001604052808981526020013373ffffffffffffffffffffffffffffffffffffffff168152602001888152602001600015158152602001878152602001836003811115611e1657611e15612b03565b5b81526020018681525090806001815401808255809150506001900390600052602060002090600702016000909190919091506000820151816000015560208201518160010160006101000a81548173ffffffffffffffffffffffffffffffffffffffff021916908373ffffffffffffffffffffffffffffffffffffffff1602179055506040820151816002015560608201518160030160006101000a81548160ff0219169083151502179055506080820151816004019081611ed89190613aab565b5060a08201518160050160006101000a81548160ff02191690836003811115611f0457611f03612b03565b5b021790555060c0820151816006019081611f1e9190613aab565b505050817fd91ad459d6781ac1a94eb5c677e1aa55ab8d256cae923e543a7e969235a041ca88338988604051611f579493929190613b7d565b60405180910390a2817f2e7de2377c1e6f85a268dbe00519c60d65c9e38570a118be0eb07feb07fc89be82604051611f8f91906134d1565b60405180910390a260026003811115611fab57611faa612b03565b5b816003811115611fbe57611fbd612b03565b5b03611fcd57611fcc82612310565b5b505050611fd8612306565b50505050565b6000808303612022576040517f08c379a0000000000000000000000000000000000000000000000000000000008152600401612019906131b4565b60405180910390fd5b6000825111612066576040517f08c379a000000000000000000000000000000000000000000000000000000000815260040161205d90613c15565b60405180910390fd5b6003600084815260200190815260200160002060020160009054906101000a900460ff1615612098576000905061215b565b60405180608001604052808381526020016000815260200160011515815260200160008152506003600085815260200190815260200160002060008201518160000190816120e69190613aab565b506020820151816001015560408201518160020160006101000a81548160ff02191690831515021790555060608201518160030155905050827f394b0745ce148d882ab7104947884f02969ee703a2fdfddbef4506ef1f4febc88360405161214e9190613c35565b60405180910390a2600190505b92915050565b6005602052816000526040600020602052806000526040600020600091509150505481565b683635c9adc5dea0000081565b600060036000838152602001908152602001600020600301549050919050565b6121bb612239565b600073ffffffffffffffffffffffffffffffffffffffff168173ffffffffffffffffffffffffffffffffffffffff160361222d5760006040517f1e4fbdf70000000000000000000000000000000000000000000000000000000081526004016122249190612d79565b60405180910390fd5b6122368161254b565b50565b612241612611565b73ffffffffffffffffffffffffffffffffffffffff1661225f611750565b73ffffffffffffffffffffffffffffffffffffffff16146122be57612282612611565b6040517f118cdaa70000000000000000000000000000000000000000000000000000000081526004016122b59190612d79565b60405180910390fd5b565b6002600054036122fc576040517f3ee5aeb500000000000000000000000000000000000000000000000000000000815260040160405180910390fd5b6002600081905550565b6001600081905550565b600060068281548110612326576123256133ca565b5b906000526020600020906007020190508060030160009054906101000a900460ff1615612388576040517f08c379a000000000000000000000000000000000000000000000000000000000815260040161237f90613ca3565b60405180910390fd5b6002600381111561239c5761239b612b03565b5b8160050160009054906101000a900460ff1660038111156123c0576123bf612b03565b5b14612400576040517f08c379a00000000000000000000000000000000000000000000000000000000081526004016123f790613d0f565b60405180910390fd5b8060020154471015612447576040517f08c379a000000000000000000000000000000000000000000000000000000000815260040161243e90613d7b565b60405180910390fd5b60018160030160006101000a81548160ff0219169083151502179055508060020154600460008360010160009054906101000a900473ffffffffffffffffffffffffffffffffffffffff1673ffffffffffffffffffffffffffffffffffffffff1673ffffffffffffffffffffffffffffffffffffffff16815260200190815260200160002060010160008282546124de9190613301565b92505081905550817faf3c8fdd75d667f71d36d7840b8ef9086c516c9b047ad6a83a5a66151342123a8260010160009054906101000a900473ffffffffffffffffffffffffffffffffffffffff16836002015460405161253f929190613634565b60405180910390a25050565b6000600160009054906101000a900473ffffffffffffffffffffffffffffffffffffffff16905081600160006101000a81548173ffffffffffffffffffffffffffffffffffffffff021916908373ffffffffffffffffffffffffffffffffffffffff1602179055508173ffffffffffffffffffffffffffffffffffffffff168173ffffffffffffffffffffffffffffffffffffffff167f8be0079c531659141344cd1fd0a4f28419497f9722a3daafe3b4186f6b6457e060405160405180910390a35050565b600033905090565b6000604051905090565b600080fd5b600080fd5b600073ffffffffffffffffffffffffffffffffffffffff82169050919050565b60006126588261262d565b9050919050565b6126688161264d565b811461267357600080fd5b50565b6000813590506126858161265f565b92915050565b6000602082840312156126a1576126a0612623565b5b60006126af84828501612676565b91505092915050565b60008115159050919050565b6126cd816126b8565b82525050565b6000819050919050565b6126e6816126d3565b82525050565b600060408201905061270160008301856126c4565b61270e60208301846126dd565b9392505050565b61271e816126d3565b811461272957600080fd5b50565b60008135905061273b81612715565b92915050565b60006020828403121561275757612756612623565b5b60006127658482850161272c565b91505092915050565b600060208201905061278360008301846126dd565b92915050565b6004811061279657600080fd5b50565b6000813590506127a881612789565b92915050565b600080604083850312156127c5576127c4612623565b5b60006127d38582860161272c565b92505060206127e485828601612799565b9150509250929050565b600060208201905061280360008301846126c4565b92915050565b600081519050919050565b600082825260208201905092915050565b6000819050602082019050919050565b61283e816126d3565b82525050565b60006128508383612835565b60208301905092915050565b6000602082019050919050565b600061287482612809565b61287e8185612814565b935061288983612825565b8060005b838110156128ba5781516128a18882612844565b97506128ac8361285c565b92505060018101905061288d565b5085935050505092915050565b600081519050919050565b600082825260208201905092915050565b6000819050602082019050919050565b6128fc8161264d565b82525050565b600061290e83836128f3565b60208301905092915050565b6000602082019050919050565b6000612932826128c7565b61293c81856128d2565b9350612947836128e3565b8060005b8381101561297857815161295f8882612902565b975061296a8361291a565b92505060018101905061294b565b5085935050505092915050565b600081519050919050565b600082825260208201905092915050565b6000819050602082019050919050565b600081519050919050565b600082825260208201905092915050565b60005b838110156129eb5780820151818401526020810190506129d0565b60008484015250505050565b6000601f19601f8301169050919050565b6000612a13826129b1565b612a1d81856129bc565b9350612a2d8185602086016129cd565b612a36816129f7565b840191505092915050565b6000612a4d8383612a08565b905092915050565b6000602082019050919050565b6000612a6d82612985565b612a778185612990565b935083602082028501612a89856129a1565b8060005b85811015612ac55784840389528151612aa68582612a41565b9450612ab183612a55565b925060208a01995050600181019050612a8d565b50829750879550505050505092915050565b600081519050919050565b600082825260208201905092915050565b6000819050602082019050919050565b7f4e487b7100000000000000000000000000000000000000000000000000000000600052602160045260246000fd5b60048110612b4357612b42612b03565b5b50565b6000819050612b5482612b32565b919050565b6000612b6482612b46565b9050919050565b612b7481612b59565b82525050565b6000612b868383612b6b565b60208301905092915050565b6000602082019050919050565b6000612baa82612ad7565b612bb48185612ae2565b9350612bbf83612af3565b8060005b83811015612bf0578151612bd78882612b7a565b9750612be283612b92565b925050600181019050612bc3565b5085935050505092915050565b600060c0820190508181036000830152612c178189612869565b90508181036020830152612c2b8188612927565b90508181036040830152612c3f8187612869565b90508181036060830152612c538186612a62565b90508181036080830152612c678185612b9f565b905081810360a0830152612c7b8184612a62565b9050979650505050505050565b600082825260208201905092915050565b6000612ca4826129b1565b612cae8185612c88565b9350612cbe8185602086016129cd565b612cc7816129f7565b840191505092915050565b60006080820190508181036000830152612cec8187612c99565b9050612cfb60208301866126dd565b612d0860408301856126c4565b612d1560608301846126dd565b95945050505050565b6000608082019050612d3360008301876126c4565b8181036020830152612d458186612c99565b9050612d5460408301856126dd565b612d6160608301846126dd565b95945050505050565b612d738161264d565b82525050565b6000602082019050612d8e6000830184612d6a565b92915050565b612d9d81612b59565b82525050565b600060e082019050612db8600083018a6126dd565b612dc56020830189612d6a565b612dd260408301886126dd565b612ddf60608301876126c4565b8181036080830152612df18186612c99565b9050612e0060a0830185612d94565b81810360c0830152612e128184612c99565b905098975050505050505050565b600080fd5b600080fd5b7f4e487b7100000000000000000000000000000000000000000000000000000000600052604160045260246000fd5b612e62826129f7565b810181811067ffffffffffffffff82111715612e8157612e80612e2a565b5b80604052505050565b6000612e94612619565b9050612ea08282612e59565b919050565b600067ffffffffffffffff821115612ec057612ebf612e2a565b5b612ec9826129f7565b9050602081019050919050565b82818337600083830152505050565b6000612ef8612ef384612ea5565b612e8a565b905082815260208101848484011115612f1457612f13612e25565b5b612f1f848285612ed6565b509392505050565b600082601f830112612f3c57612f3b612e20565b5b8135612f4c848260208601612ee5565b91505092915050565b60008060008060808587031215612f6f57612f6e612623565b5b6000612f7d8782880161272c565b9450506020612f8e8782880161272c565b935050604085013567ffffffffffffffff811115612faf57612fae612628565b5b612fbb87828801612f27565b925050606085013567ffffffffffffffff811115612fdc57612fdb612628565b5b612fe887828801612f27565b91505092959194509250565b6000806040838503121561300b5761300a612623565b5b60006130198582860161272c565b925050602083013567ffffffffffffffff81111561303a57613039612628565b5b61304685828601612f27565b9150509250929050565b6000806040838503121561306757613066612623565b5b60006130758582860161272c565b92505060206130868582860161272c565b9150509250929050565b7f50726f766964657220616c726561647920726567697374657265640000000000600082015250565b60006130c6601b83612c88565b91506130d182613090565b602082019050919050565b600060208201905081810360008301526130f5816130b9565b9050919050565b7f496e73756666696369656e742062616c616e6365000000000000000000000000600082015250565b6000613132601483612c88565b915061313d826130fc565b602082019050919050565b6000602082019050818103600083015261316181613125565b9050919050565b7f496e76616c6964206e6174696f6e616c20494400000000000000000000000000600082015250565b600061319e601383612c88565b91506131a982613168565b602082019050919050565b600060208201905081810360008301526131cd81613191565b9050919050565b7f4d656d626572206e6f742072656769737465726564206f7220696e616374697660008201527f6500000000000000000000000000000000000000000000000000000000000000602082015250565b6000613230602183612c88565b915061323b826131d4565b604082019050919050565b6000602082019050818103600083015261325f81613223565b9050919050565b7f496e636f727265637420636f6e747269627574696f6e20616d6f756e74000000600082015250565b600061329c601d83612c88565b91506132a782613266565b602082019050919050565b600060208201905081810360008301526132cb8161328f565b9050919050565b7f4e487b7100000000000000000000000000000000000000000000000000000000600052601160045260246000fd5b600061330c826126d3565b9150613317836126d3565b925082820190508082111561332f5761332e6132d2565b5b92915050565b600060408201905061334a60008301856126dd565b6133576020830184612d6a565b9392505050565b7f496e76616c696420636c61696d20494400000000000000000000000000000000600082015250565b6000613394601083612c88565b915061339f8261335e565b602082019050919050565b600060208201905081810360008301526133c381613387565b9050919050565b7f4e487b7100000000000000000000000000000000000000000000000000000000600052603260045260246000fd5b7f436c61696d206973206e6f7420756e6465722072657669657700000000000000600082015250565b600061342f601983612c88565b915061343a826133f9565b602082019050919050565b6000602082019050818103600083015261345e81613422565b9050919050565b7f496e76616c6964206e6577207374617475730000000000000000000000000000600082015250565b600061349b601283612c88565b91506134a682613465565b602082019050919050565b600060208201905081810360008301526134ca8161348e565b9050919050565b60006020820190506134e66000830184612d94565b92915050565b7f4e487b7100000000000000000000000000000000000000000000000000000000600052602260045260246000fd5b6000600282049050600182168061353357607f821691505b602082108103613546576135456134ec565b5b50919050565b6000613557826126d3565b91507fffffffffffffffffffffffffffffffffffffffffffffffffffffffffffffffff8203613589576135886132d2565b5b600182019050919050565b7f50726f7669646572206e6f742072656769737465726564000000000000000000600082015250565b60006135ca601783612c88565b91506135d582613594565b602082019050919050565b600060208201905081810360008301526135f9816135bd565b9050919050565b600061360b826126d3565b9150613616836126d3565b925082820390508181111561362e5761362d6132d2565b5b92915050565b60006040820190506136496000830185612d6a565b61365660208301846126dd565b9392505050565b7f4f6e6c7920726567697374657265642070726f7669646572732063616e20636160008201527f6c6c20746869732066756e6374696f6e00000000000000000000000000000000602082015250565b60006136b9603083612c88565b91506136c48261365d565b604082019050919050565b600060208201905081810360008301526136e8816136ac565b9050919050565b7f4d656d626572206e6f7420726567697374657265640000000000000000000000600082015250565b6000613725601583612c88565b9150613730826136ef565b602082019050919050565b6000602082019050818103600083015261375481613718565b9050919050565b7f436c61696d20616d6f756e7420746f6f20686967680000000000000000000000600082015250565b6000613791601583612c88565b915061379c8261375b565b602082019050919050565b600060208201905081810360008301526137c081613784565b9050919050565b7f436f6e747269627574696f6e206e6f7420757020746f20646174650000000000600082015250565b60006137fd601b83612c88565b9150613808826137c7565b602082019050919050565b6000602082019050818103600083015261382c816137f0565b9050919050565b7f4e487b7100000000000000000000000000000000000000000000000000000000600052601260045260246000fd5b600061386d826126d3565b9150613878836126d3565b92508261388857613887613833565b5b828204905092915050565b7f596561726c7920636c61696d206c696d69742065786365656465640000000000600082015250565b60006138c9601b83612c88565b91506138d482613893565b602082019050919050565b600060208201905081810360008301526138f8816138bc565b9050919050565b60008190508160005260206000209050919050565b60006020601f8301049050919050565b600082821b905092915050565b6000600883026139617fffffffffffffffffffffffffffffffffffffffffffffffffffffffffffffffff82613924565b61396b8683613924565b95508019841693508086168417925050509392505050565b6000819050919050565b60006139a86139a361399e846126d3565b613983565b6126d3565b9050919050565b6000819050919050565b6139c28361398d565b6139d66139ce826139af565b848454613931565b825550505050565b600090565b6139eb6139de565b6139f68184846139b9565b505050565b5b81811015613a1a57613a0f6000826139e3565b6001810190506139fc565b5050565b601f821115613a5f57613a30816138ff565b613a3984613914565b81016020851015613a48578190505b613a5c613a5485613914565b8301826139fb565b50505b505050565b600082821c905092915050565b6000613a8260001984600802613a64565b1980831691505092915050565b6000613a9b8383613a71565b9150826002028217905092915050565b613ab4826129b1565b67ffffffffffffffff811115613acd57613acc612e2a565b5b613ad7825461351b565b613ae2828285613a1e565b600060209050601f831160018114613b155760008415613b03578287015190505b613b0d8582613a8f565b865550613b75565b601f198416613b23866138ff565b60005b82811015613b4b57848901518255600182019150602085019450602081019050613b26565b86831015613b685784890151613b64601f891682613a71565b8355505b6001600288020188555050505b505050505050565b6000608082019050613b9260008301876126dd565b613b9f6020830186612d6a565b613bac60408301856126dd565b8181036060830152613bbe8184612c99565b905095945050505050565b7f4e616d652063616e6e6f7420626520656d707479000000000000000000000000600082015250565b6000613bff601483612c88565b9150613c0a82613bc9565b602082019050919050565b60006020820190508181036000830152613c2e81613bf2565b9050919050565b60006020820190508181036000830152613c4f8184612c99565b905092915050565b7f436c61696d20616c726561647920706169640000000000000000000000000000600082015250565b6000613c8d601283612c88565b9150613c9882613c57565b602082019050919050565b60006020820190508181036000830152613cbc81613c80565b9050919050565b7f436c61696d206e6f7420617070726f7665640000000000000000000000000000600082015250565b6000613cf9601283612c88565b9150613d0482613cc3565b602082019050919050565b60006020820190508181036000830152613d2881613cec565b9050919050565b7f496e73756666696369656e7420636f6e74726163742062616c616e6365000000600082015250565b6000613d65601d83612c88565b9150613d7082613d2f565b602082019050919050565b60006020820190508181036000830152613d9481613d58565b905091905056fea2646970667358221220c0e913f9e71a8055bda21dca79b7bcfdc52741f087575a6e870bfab7bc60befd64736f6c63430008140033",
  "linkReferences": {},
  "deployedLinkReferences": {}
}