{
  "_format": "hh-sol-artifact-1",
  "contractName": "NHIF",
  "sourceName": "contracts/NHIF.sol",
  "abi": [
    {
      "inputs": [
        {
          "internalType": "uint256",
          "name": "_monthlyContributionWei",
          "type": "uint256"
        }
      ],
      "stateMutability": "nonpayable",
      "type": "constructor"
    },
    {
      "inputs": [
        {
          "internalType": "address",
          "name": "owner",
          "type": "address"
        }
      ],
      "name": "OwnableInvalidOwner",
      "type": "error"
    },
    {
      "inputs": [
        {
          "internalType": "address",
          "name": "account",
          "type": "address"
        }
      ],
      "name": "OwnableUnauthorizedAccount",
      "type": "error"
    },
    {
      "inputs": [],
      "name": "ReentrancyGuardReentrantCall",
      "type": "error"
    },
    {
      "anonymous": false,
      "inputs": [
        {
          "indexed": true,
          "internalType": "uint256",
          "name": "claimId",
          "type": "uint256"
        },
        {
          "indexed": false,
          "internalType": "address",
          "name": "provider",
          "type": "address"
        },
        {
          "indexed": false,
          "internalType": "uint256",
          "name": "amount",
          "type": "uint256"
        }
      ],
      "name": "ClaimPaid",
      "type": "event"
    },
    {
      "anonymous": false,
      "inputs": [
        {
          "indexed": true,
          "internalType": "uint256",
          "name": "claimId",
          "type": "uint256"
        },
        {
          "indexed": false,
          "internalType": "enum NHIF.ClaimStatus",
          "name": "newStatus",
          "type": "uint8"
        }
      ],
      "name": "ClaimStatusUpdated",
      "type": "event"
    },
    {
      "anonymous": false,
      "inputs": [
        {
          "indexed": true,
          "internalType": "uint256",
          "name": "claimId",
          "type": "uint256"
        },
        {
          "indexed": false,
          "internalType": "uint256",
          "name": "nationalId",
          "type": "uint256"
        },
        {
          "indexed": false,
          "internalType": "address",
          "name": "provider",
          "type": "address"
        },
        {
          "indexed": false,
          "internalType": "uint256",
          "name": "amount",
          "type": "uint256"
        }
      ],
      "name": "ClaimSubmitted",
      "type": "event"
    },
    {
      "anonymous": false,
      "inputs": [
        {
          "indexed": true,
          "internalType": "uint256",
          "name": "nationalId",
          "type": "uint256"
        },
        {
          "indexed": false,
          "internalType": "uint256",
          "name": "amount",
          "type": "uint256"
        },
        {
          "indexed": false,
          "internalType": "address",
          "name": "payer",
          "type": "address"
        }
      ],
      "name": "ContributionPaid",
      "type": "event"
    },
    {
      "anonymous": false,
      "inputs": [
        {
          "indexed": true,
          "internalType": "uint256",
          "name": "nationalId",
          "type": "uint256"
        },
        {
          "indexed": false,
          "internalType": "string",
          "name": "name",
          "type": "string"
        }
      ],
      "name": "MemberRegistered",
      "type": "event"
    },
    {
      "anonymous": false,
      "inputs": [
        {
          "indexed": true,
          "internalType": "address",
          "name": "previousOwner",
          "type": "address"
        },
        {
          "indexed": true,
          "internalType": "address",
          "name": "newOwner",
          "type": "address"
        }
      ],
      "name": "OwnershipTransferred",
      "type": "event"
    },
    {
      "anonymous": false,
      "inputs": [
        {
          "indexed": false,
          "internalType": "address",
          "name": "provider",
          "type": "address"
        }
      ],
      "name": "ProviderRegistered",
      "type": "event"
    },
    {
      "anonymous": false,
      "inputs": [
        {
          "indexed": false,
          "internalType": "address",
          "name": "provider",
          "type": "address"
        }
      ],
      "name": "ProviderRemoved",
      "type": "event"
    },
    {
      "inputs": [],
      "name": "AUTO_APPROVE_LIMIT",
      "outputs": [
        {
          "internalType": "uint256",
          "name": "",
          "type": "uint256"
        }
      ],
      "stateMutability": "view",
      "type": "function"
    },
    {
      "inputs": [],
      "name": "MAX_CLAIM_AMOUNT",
      "outputs": [
        {
          "internalType": "uint256",
          "name": "",
          "type": "uint256"
        }
      ],
      "stateMutability": "view",
      "type": "function"
    },
    {
      "inputs": [],
      "name": "YEARLY_CLAIM_LIMIT",
      "outputs": [
        {
          "internalType": "uint256",
          "name": "",
          "type": "uint256"
        }
      ],
      "stateMutability": "view",
      "type": "function"
    },
    {
      "inputs": [
        {
          "internalType": "uint256",
          "name": "",
          "type": "uint256"
        }
      ],
      "name": "claims",
      "outputs": [
        {
          "internalType": "uint256",
          "name": "nationalId",
          "type": "uint256"
        },
        {
          "internalType": "address",
          "name": "provider",
          "type": "address"
        },
        {
          "internalType": "uint256",
          "name": "amount",
          "type": "uint256"
        },
        {
          "internalType": "bool",
          "name": "isPaid",
          "type": "bool"
        },
        {
          "internalType": "string",
          "name": "ipfsHash",
          "type": "string"
        },
        {
          "internalType": "enum NHIF.ClaimStatus",
          "name": "status",
          "type": "uint8"
        }
      ],
      "stateMutability": "view",
      "type": "function"
    },
    {
      "inputs": [],
      "name": "getClaimsCount",
      "outputs": [
        {
          "internalType": "uint256",
          "name": "",
          "type": "uint256"
        }
      ],
      "stateMutability": "view",
      "type": "function"
    },
    {
      "inputs": [
        {
          "internalType": "uint256",
          "name": "_nationalId",
          "type": "uint256"
        }
      ],
      "name": "getMemberStatus",
      "outputs": [
        {
          "internalType": "bool",
          "name": "isActive",
          "type": "bool"
        },
        {
          "internalType": "string",
          "name": "name",
          "type": "string"
        },
        {
          "internalType": "uint256",
          "name": "lastContributionDate",
          "type": "uint256"
        }
      ],
      "stateMutability": "view",
      "type": "function"
    },
    {
      "inputs": [],
      "name": "getMonthlyContribution",
      "outputs": [
        {
          "internalType": "uint256",
          "name": "",
          "type": "uint256"
        }
      ],
      "stateMutability": "view",
      "type": "function"
    },
    {
      "inputs": [
        {
          "internalType": "uint256",
          "name": "_nationalId",
          "type": "uint256"
        }
      ],
      "name": "isMemberActive",
      "outputs": [
        {
          "internalType": "bool",
          "name": "",
          "type": "bool"
        }
      ],
      "stateMutability": "view",
      "type": "function"
    },
    {
      "inputs": [
        {
          "internalType": "address",
          "name": "_provider",
          "type": "address"
        }
      ],
      "name": "isRegisteredProvider",
      "outputs": [
        {
          "internalType": "bool",
          "name": "",
          "type": "bool"
        }
      ],
      "stateMutability": "view",
      "type": "function"
    },
    {
      "inputs": [
        {
          "internalType": "uint256",
          "name": "_nationalId",
          "type": "uint256"
        }
      ],
      "name": "makeContribution",
      "outputs": [],
      "stateMutability": "payable",
      "type": "function"
    },
    {
      "inputs": [
        {
          "internalType": "uint256",
          "name": "",
          "type": "uint256"
        },
        {
          "internalType": "uint256",
          "name": "",
          "type": "uint256"
        }
      ],
      "name": "memberYearlyClaims",
      "outputs": [
        {
          "internalType": "uint256",
          "name": "",
          "type": "uint256"
        }
      ],
      "stateMutability": "view",
      "type": "function"
    },
    {
      "inputs": [
        {
          "internalType": "uint256",
          "name": "",
          "type": "uint256"
        }
      ],
      "name": "members",
      "outputs": [
        {
          "internalType": "string",
          "name": "name",
          "type": "string"
        },
        {
          "internalType": "uint256",
          "name": "lastContributionDate",
          "type": "uint256"
        },
        {
          "internalType": "bool",
          "name": "isActive",
          "type": "bool"
        }
      ],
      "stateMutability": "view",
      "type": "function"
    },
    {
      "inputs": [],
      "name": "monthlyContributionWei",
      "outputs": [
        {
          "internalType": "uint256",
          "name": "",
          "type": "uint256"
        }
      ],
      "stateMutability": "view",
      "type": "function"
    },
    {
      "inputs": [],
      "name": "owner",
      "outputs": [
        {
          "internalType": "address",
          "name": "",
          "type": "address"
        }
      ],
      "stateMutability": "view",
      "type": "function"
    },
    {
      "inputs": [
        {
          "internalType": "address",
          "name": "",
          "type": "address"
        }
      ],
      "name": "providers",
      "outputs": [
        {
          "internalType": "bool",
          "name": "",
          "type": "bool"
        }
      ],
      "stateMutability": "view",
      "type": "function"
    },
    {
      "inputs": [
        {
          "internalType": "uint256",
          "name": "_nationalId",
          "type": "uint256"
        },
        {
          "internalType": "string",
          "name": "_name",
          "type": "string"
        }
      ],
      "name": "registerMember",
      "outputs": [
        {
          "internalType": "bool",
          "name": "",
          "type": "bool"
        }
      ],
      "stateMutability": "nonpayable",
      "type": "function"
    },
    {
      "inputs": [
        {
          "internalType": "address",
          "name": "_provider",
          "type": "address"
        }
      ],
      "name": "registerProvider",
      "outputs": [],
      "stateMutability": "nonpayable",
      "type": "function"
    },
    {
      "inputs": [
        {
          "internalType": "address",
          "name": "_provider",
          "type": "address"
        }
      ],
      "name": "removeProvider",
      "outputs": [],
      "stateMutability": "nonpayable",
      "type": "function"
    },
    {
      "inputs": [],
      "name": "renounceOwnership",
      "outputs": [],
      "stateMutability": "nonpayable",
      "type": "function"
    },
    {
      "inputs": [
        {
          "internalType": "uint256",
          "name": "_claimId",
          "type": "uint256"
        },
        {
          "internalType": "enum NHIF.ClaimStatus",
          "name": "_newStatus",
          "type": "uint8"
        }
      ],
      "name": "reviewClaim",
      "outputs": [],
      "stateMutability": "nonpayable",
      "type": "function"
    },
    {
      "inputs": [
        {
          "internalType": "uint256",
          "name": "_newContributionWei",
          "type": "uint256"
        }
      ],
      "name": "setMonthlyContribution",
      "outputs": [],
      "stateMutability": "nonpayable",
      "type": "function"
    },
    {
      "inputs": [
        {
          "internalType": "uint256",
          "name": "_nationalId",
          "type": "uint256"
        },
        {
          "internalType": "uint256",
          "name": "_amount",
          "type": "uint256"
        },
        {
          "internalType": "string",
          "name": "_ipfsHash",
          "type": "string"
        }
      ],
      "name": "submitClaim",
      "outputs": [],
      "stateMutability": "nonpayable",
      "type": "function"
    },
    {
      "inputs": [
        {
          "internalType": "address",
          "name": "newOwner",
          "type": "address"
        }
      ],
      "name": "transferOwnership",
      "outputs": [],
      "stateMutability": "nonpayable",
      "type": "function"
    },
    {
      "inputs": [
        {
          "internalType": "uint256",
          "name": "_amount",
          "type": "uint256"
        }
      ],
      "name": "withdrawFunds",
      "outputs": [],
      "stateMutability": "nonpayable",
      "type": "function"
    },
    {
      "stateMutability": "payable",
      "type": "receive"
    }
  ],
  "bytecode": "0x60806040523480156200001157600080fd5b5060405162002f3938038062002f398339818101604052810190620000379190620001db565b336001600081905550600073ffffffffffffffffffffffffffffffffffffffff168173ffffffffffffffffffffffffffffffffffffffff1603620000b55760006040517f1e4fbdf7000000000000000000000000000000000000000000000000000000008152600401620000ac919062000252565b60405180910390fd5b620000c681620000d560201b60201c565b5080600681905550506200026f565b6000600160009054906101000a900473ffffffffffffffffffffffffffffffffffffffff16905081600160006101000a81548173ffffffffffffffffffffffffffffffffffffffff021916908373ffffffffffffffffffffffffffffffffffffffff1602179055508173ffffffffffffffffffffffffffffffffffffffff168173ffffffffffffffffffffffffffffffffffffffff167f8be0079c531659141344cd1fd0a4f28419497f9722a3daafe3b4186f6b6457e060405160405180910390a35050565b600080fd5b6000819050919050565b620001b581620001a0565b8114620001c157600080fd5b50565b600081519050620001d581620001aa565b92915050565b600060208284031215620001f457620001f36200019b565b5b60006200020484828501620001c4565b91505092915050565b600073ffffffffffffffffffffffffffffffffffffffff82169050919050565b60006200023a826200020d565b9050919050565b6200024c816200022d565b82525050565b600060208201905062000269600083018462000241565b92915050565b612cba806200027f6000396000f3fe60806040526004361061014f5760003560e01c8063715018a6116100b6578063a888c2cd1161006f578063a888c2cd14610490578063b1aed43e146104d2578063d3ffde95146104fd578063d90a35281461053a578063e362b4f714610577578063f2fde38b146105a257610156565b8063715018a61461039057806373e67938146103a75780637d0d719b146103d257806381054ac4146104115780638a355a571461043c5780638da5cb5b1461046557610156565b80633c20283c116101085780633c20283c146102585780633d921ddf146102835780633ef8f2ba146102ac5780634186c4e8146102d757806351ca236f146103145780635daf08ca1461035157610156565b806306964de71461015b5780630787bc27146101845780630e260016146101c1578063155dd5ee146101ea578063360a2bcb146102135780633a59f4f31461022f57610156565b3661015657005b600080fd5b34801561016757600080fd5b50610182600480360381019061017d9190611bb6565b6105cb565b005b34801561019057600080fd5b506101ab60048036038101906101a69190611c83565b610a6b565b6040516101b89190611ccb565b60405180910390f35b3480156101cd57600080fd5b506101e860048036038101906101e39190611c83565b610a8b565b005b3480156101f657600080fd5b50610211600480360381019061020c9190611ce6565b610bb2565b005b61022d60048036038101906102289190611ce6565b610c4e565b005b34801561023b57600080fd5b5061025660048036038101906102519190611d38565b610d85565b005b34801561026457600080fd5b5061026d610fa6565b60405161027a9190611d87565b60405180910390f35b34801561028f57600080fd5b506102aa60048036038101906102a59190611ce6565b610fb4565b005b3480156102b857600080fd5b506102c1610fc6565b6040516102ce9190611d87565b60405180910390f35b3480156102e357600080fd5b506102fe60048036038101906102f99190611ce6565b610fd3565b60405161030b9190611ccb565b60405180910390f35b34801561032057600080fd5b5061033b60048036038101906103369190611c83565b611000565b6040516103489190611ccb565b60405180910390f35b34801561035d57600080fd5b5061037860048036038101906103739190611ce6565b611056565b60405161038793929190611e21565b60405180910390f35b34801561039c57600080fd5b506103a5611115565b005b3480156103b357600080fd5b506103bc611129565b6040516103c99190611d87565b60405180910390f35b3480156103de57600080fd5b506103f960048036038101906103f49190611ce6565b611136565b60405161040893929190611e5f565b60405180910390f35b34801561041d57600080fd5b50610426611207565b6040516104339190611d87565b60405180910390f35b34801561044857600080fd5b50610463600480360381019061045e9190611c83565b611211565b005b34801561047157600080fd5b5061047a611337565b6040516104879190611eac565b60405180910390f35b34801561049c57600080fd5b506104b760048036038101906104b29190611ce6565b611361565b6040516104c996959493929190611f3e565b60405180910390f35b3480156104de57600080fd5b506104e761146f565b6040516104f49190611d87565b60405180910390f35b34801561050957600080fd5b50610524600480360381019061051f9190611fa6565b611475565b6040516105319190611ccb565b60405180910390f35b34801561054657600080fd5b50610561600480360381019061055c9190612002565b6115e7565b60405161056e9190611d87565b60405180910390f35b34801561058357600080fd5b5061058c61160c565b6040516105999190611d87565b60405180910390f35b3480156105ae57600080fd5b506105c960048036038101906105c49190611c83565b611619565b005b600360003373ffffffffffffffffffffffffffffffffffffffff1673ffffffffffffffffffffffffffffffffffffffff16815260200190815260200160002060009054906101000a900460ff16610657576040517f08c379a000000000000000000000000000000000000000000000000000000000815260040161064e906120b4565b60405180910390fd5b61065f61169f565b6002600084815260200190815260200160002060020160009054906101000a900460ff166106c2576040517f08c379a00000000000000000000000000000000000000000000000000000000081526004016106b990612120565b60405180910390fd5b683635c9adc5dea0000082111561070e576040517f08c379a00000000000000000000000000000000000000000000000000000000081526004016107059061218c565b60405180910390fd5b62278d0060026000858152602001908152602001600020600101544261073491906121db565b1115610775576040517f08c379a000000000000000000000000000000000000000000000000000000000815260040161076c9061225b565b60405180910390fd5b60006107b26301e133804261078a91906122aa565b61079491906122db565b90508260046000868152602001908152602001600020600083815260200190815260200160002060008282546107ca91906122db565b9250508190555069010f0cf064dd59200000600460008681526020019081526020016000206000838152602001908152602001600020541115610842576040517f08c379a00000000000000000000000000000000000000000000000000000000081526004016108399061235b565b60405180910390fd5b60006005805490509050600068056bc75e2d63100000851115610866576001610869565b60025b905060056040518060c001604052808881526020013373ffffffffffffffffffffffffffffffffffffffff1681526020018781526020016000151581526020018681526020018360038111156108c2576108c1611ec7565b5b81525090806001815401808255809150506001900390600052602060002090600602016000909190919091506000820151816000015560208201518160010160006101000a81548173ffffffffffffffffffffffffffffffffffffffff021916908373ffffffffffffffffffffffffffffffffffffffff1602179055506040820151816002015560608201518160030160006101000a81548160ff021916908315150217905550608082015181600401908161097e9190612587565b5060a08201518160050160006101000a81548160ff021916908360038111156109aa576109a9611ec7565b5b02179055505050817f3a30d1c4069e097873e77443df9683e8de5c7ba3674315b8670a0211e31301958733886040516109e593929190612659565b60405180910390a2817f2e7de2377c1e6f85a268dbe00519c60d65c9e38570a118be0eb07feb07fc89be82604051610a1d9190612690565b60405180910390a260026003811115610a3957610a38611ec7565b5b816003811115610a4c57610a4b611ec7565b5b03610a5b57610a5a826116e5565b5b505050610a666118c7565b505050565b60036020528060005260406000206000915054906101000a900460ff1681565b610a936118d1565b600360008273ffffffffffffffffffffffffffffffffffffffff1673ffffffffffffffffffffffffffffffffffffffff16815260200190815260200160002060009054906101000a900460ff1615610b20576040517f08c379a0000000000000000000000000000000000000000000000000000000008152600401610b17906126f7565b60405180910390fd5b6001600360008373ffffffffffffffffffffffffffffffffffffffff1673ffffffffffffffffffffffffffffffffffffffff16815260200190815260200160002060006101000a81548160ff0219169083151502179055507f70abce74777b3838ae60a33a6b9a87d9d25532668fe4fea548554c55868579c081604051610ba79190611eac565b60405180910390a150565b610bba6118d1565b47811115610bfd576040517f08c379a0000000000000000000000000000000000000000000000000000000008152600401610bf490612763565b60405180910390fd5b610c05611337565b73ffffffffffffffffffffffffffffffffffffffff166108fc829081150290604051600060405180830381858888f19350505050158015610c4a573d6000803e3d6000fd5b5050565b610c5661169f565b60008103610c99576040517f08c379a0000000000000000000000000000000000000000000000000000000008152600401610c90906127cf565b60405180910390fd5b610ca281610fd3565b610ce1576040517f08c379a0000000000000000000000000000000000000000000000000000000008152600401610cd890612861565b60405180910390fd5b6006543414610d25576040517f08c379a0000000000000000000000000000000000000000000000000000000008152600401610d1c906128cd565b60405180910390fd5b426002600083815260200190815260200160002060010181905550807feef6ff3446b5ececc6a644fe5d1ac01057cbdab655d8caf13defa143433c2bc93433604051610d729291906128ed565b60405180910390a2610d826118c7565b50565b610d8d6118d1565b6005805490508210610dd4576040517f08c379a0000000000000000000000000000000000000000000000000000000008152600401610dcb90612962565b60405180910390fd5b600060058381548110610dea57610de9612982565b5b9060005260206000209060060201905060016003811115610e0e57610e0d611ec7565b5b8160050160009054906101000a900460ff166003811115610e3257610e31611ec7565b5b14610e72576040517f08c379a0000000000000000000000000000000000000000000000000000000008152600401610e69906129fd565b60405180910390fd5b60026003811115610e8657610e85611ec7565b5b826003811115610e9957610e98611ec7565b5b1480610ec85750600380811115610eb357610eb2611ec7565b5b826003811115610ec657610ec5611ec7565b5b145b610f07576040517f08c379a0000000000000000000000000000000000000000000000000000000008152600401610efe90612a69565b60405180910390fd5b818160050160006101000a81548160ff02191690836003811115610f2e57610f2d611ec7565b5b0217905550827f2e7de2377c1e6f85a268dbe00519c60d65c9e38570a118be0eb07feb07fc89be83604051610f639190612690565b60405180910390a260026003811115610f7f57610f7e611ec7565b5b826003811115610f9257610f91611ec7565b5b03610fa157610fa0836116e5565b5b505050565b69010f0cf064dd5920000081565b610fbc6118d1565b8060068190555050565b6000600580549050905090565b60006002600083815260200190815260200160002060020160009054906101000a900460ff169050919050565b6000600360008373ffffffffffffffffffffffffffffffffffffffff1673ffffffffffffffffffffffffffffffffffffffff16815260200190815260200160002060009054906101000a900460ff169050919050565b6002602052806000526040600020600091509050806000018054611079906123aa565b80601f01602080910402602001604051908101604052809291908181526020018280546110a5906123aa565b80156110f25780601f106110c7576101008083540402835291602001916110f2565b820191906000526020600020905b8154815290600101906020018083116110d557829003601f168201915b5050505050908060010154908060020160009054906101000a900460ff16905083565b61111d6118d1565b6111276000611958565b565b68056bc75e2d6310000081565b600060606000806002600086815260200190815260200160002090508060020160009054906101000a900460ff16816000018260010154818054611179906123aa565b80601f01602080910402602001604051908101604052809291908181526020018280546111a5906123aa565b80156111f25780601f106111c7576101008083540402835291602001916111f2565b820191906000526020600020905b8154815290600101906020018083116111d557829003601f168201915b50505050509150935093509350509193909250565b6000600654905090565b6112196118d1565b600360008273ffffffffffffffffffffffffffffffffffffffff1673ffffffffffffffffffffffffffffffffffffffff16815260200190815260200160002060009054906101000a900460ff166112a5576040517f08c379a000000000000000000000000000000000000000000000000000000000815260040161129c90612ad5565b60405180910390fd5b6000600360008373ffffffffffffffffffffffffffffffffffffffff1673ffffffffffffffffffffffffffffffffffffffff16815260200190815260200160002060006101000a81548160ff0219169083151502179055507f1589f8555933761a3cff8aa925061be3b46e2dd43f621322ab611d300f62b1d98160405161132c9190611eac565b60405180910390a150565b6000600160009054906101000a900473ffffffffffffffffffffffffffffffffffffffff16905090565b6005818154811061137157600080fd5b90600052602060002090600602016000915090508060000154908060010160009054906101000a900473ffffffffffffffffffffffffffffffffffffffff16908060020154908060030160009054906101000a900460ff16908060040180546113d9906123aa565b80601f0160208091040260200160405190810160405280929190818152602001828054611405906123aa565b80156114525780601f1061142757610100808354040283529160200191611452565b820191906000526020600020905b81548152906001019060200180831161143557829003601f168201915b5050505050908060050160009054906101000a900460ff16905086565b60065481565b60008083036114b9576040517f08c379a00000000000000000000000000000000000000000000000000000000081526004016114b0906127cf565b60405180910390fd5b60008251116114fd576040517f08c379a00000000000000000000000000000000000000000000000000000000081526004016114f490612b41565b60405180910390fd5b6002600084815260200190815260200160002060020160009054906101000a900460ff161561152f57600090506115e1565b604051806060016040528083815260200160008152602001600115158152506002600085815260200190815260200160002060008201518160000190816115769190612587565b506020820151816001015560408201518160020160006101000a81548160ff021916908315150217905550905050827f394b0745ce148d882ab7104947884f02969ee703a2fdfddbef4506ef1f4febc8836040516115d49190612b61565b60405180910390a2600190505b92915050565b6004602052816000526040600020602052806000526040600020600091509150505481565b683635c9adc5dea0000081565b6116216118d1565b600073ffffffffffffffffffffffffffffffffffffffff168173ffffffffffffffffffffffffffffffffffffffff16036116935760006040517f1e4fbdf700000000000000000000000000000000000000000000000000000000815260040161168a9190611eac565b60405180910390fd5b61169c81611958565b50565b6002600054036116db576040517f3ee5aeb500000000000000000000000000000000000000000000000000000000815260040160405180910390fd5b6002600081905550565b6000600582815481106116fb576116fa612982565b5b906000526020600020906006020190508060030160009054906101000a900460ff161561175d576040517f08c379a000000000000000000000000000000000000000000000000000000000815260040161175490612bcf565b60405180910390fd5b6002600381111561177157611770611ec7565b5b8160050160009054906101000a900460ff16600381111561179557611794611ec7565b5b146117d5576040517f08c379a00000000000000000000000000000000000000000000000000000000081526004016117cc90612c3b565b60405180910390fd5b60018160030160006101000a81548160ff0219169083151502179055508060010160009054906101000a900473ffffffffffffffffffffffffffffffffffffffff1673ffffffffffffffffffffffffffffffffffffffff166108fc82600201549081150290604051600060405180830381858888f19350505050158015611860573d6000803e3d6000fd5b50817faf3c8fdd75d667f71d36d7840b8ef9086c516c9b047ad6a83a5a66151342123a8260010160009054906101000a900473ffffffffffffffffffffffffffffffffffffffff1683600201546040516118bb929190612c5b565b60405180910390a25050565b6001600081905550565b6118d9611a1e565b73ffffffffffffffffffffffffffffffffffffffff166118f7611337565b73ffffffffffffffffffffffffffffffffffffffff16146119565761191a611a1e565b6040517f118cdaa700000000000000000000000000000000000000000000000000000000815260040161194d9190611eac565b60405180910390fd5b565b6000600160009054906101000a900473ffffffffffffffffffffffffffffffffffffffff16905081600160006101000a81548173ffffffffffffffffffffffffffffffffffffffff021916908373ffffffffffffffffffffffffffffffffffffffff1602179055508173ffffffffffffffffffffffffffffffffffffffff168173ffffffffffffffffffffffffffffffffffffffff167f8be0079c531659141344cd1fd0a4f28419497f9722a3daafe3b4186f6b6457e060405160405180910390a35050565b600033905090565b6000604051905090565b600080fd5b600080fd5b6000819050919050565b611a4d81611a3a565b8114611a5857600080fd5b50565b600081359050611a6a81611a44565b92915050565b600080fd5b600080fd5b6000601f19601f8301169050919050565b7f4e487b7100000000000000000000000000000000000000000000000000000000600052604160045260246000fd5b611ac382611a7a565b810181811067ffffffffffffffff82111715611ae257611ae1611a8b565b5b80604052505050565b6000611af5611a26565b9050611b018282611aba565b919050565b600067ffffffffffffffff821115611b2157611b20611a8b565b5b611b2a82611a7a565b9050602081019050919050565b82818337600083830152505050565b6000611b59611b5484611b06565b611aeb565b905082815260208101848484011115611b7557611b74611a75565b5b611b80848285611b37565b509392505050565b600082601f830112611b9d57611b9c611a70565b5b8135611bad848260208601611b46565b91505092915050565b600080600060608486031215611bcf57611bce611a30565b5b6000611bdd86828701611a5b565b9350506020611bee86828701611a5b565b925050604084013567ffffffffffffffff811115611c0f57611c0e611a35565b5b611c1b86828701611b88565b9150509250925092565b600073ffffffffffffffffffffffffffffffffffffffff82169050919050565b6000611c5082611c25565b9050919050565b611c6081611c45565b8114611c6b57600080fd5b50565b600081359050611c7d81611c57565b92915050565b600060208284031215611c9957611c98611a30565b5b6000611ca784828501611c6e565b91505092915050565b60008115159050919050565b611cc581611cb0565b82525050565b6000602082019050611ce06000830184611cbc565b92915050565b600060208284031215611cfc57611cfb611a30565b5b6000611d0a84828501611a5b565b91505092915050565b60048110611d2057600080fd5b50565b600081359050611d3281611d13565b92915050565b60008060408385031215611d4f57611d4e611a30565b5b6000611d5d85828601611a5b565b9250506020611d6e85828601611d23565b9150509250929050565b611d8181611a3a565b82525050565b6000602082019050611d9c6000830184611d78565b92915050565b600081519050919050565b600082825260208201905092915050565b60005b83811015611ddc578082015181840152602081019050611dc1565b60008484015250505050565b6000611df382611da2565b611dfd8185611dad565b9350611e0d818560208601611dbe565b611e1681611a7a565b840191505092915050565b60006060820190508181036000830152611e3b8186611de8565b9050611e4a6020830185611d78565b611e576040830184611cbc565b949350505050565b6000606082019050611e746000830186611cbc565b8181036020830152611e868185611de8565b9050611e956040830184611d78565b949350505050565b611ea681611c45565b82525050565b6000602082019050611ec16000830184611e9d565b92915050565b7f4e487b7100000000000000000000000000000000000000000000000000000000600052602160045260246000fd5b60048110611f0757611f06611ec7565b5b50565b6000819050611f1882611ef6565b919050565b6000611f2882611f0a565b9050919050565b611f3881611f1d565b82525050565b600060c082019050611f536000830189611d78565b611f606020830188611e9d565b611f6d6040830187611d78565b611f7a6060830186611cbc565b8181036080830152611f8c8185611de8565b9050611f9b60a0830184611f2f565b979650505050505050565b60008060408385031215611fbd57611fbc611a30565b5b6000611fcb85828601611a5b565b925050602083013567ffffffffffffffff811115611fec57611feb611a35565b5b611ff885828601611b88565b9150509250929050565b6000806040838503121561201957612018611a30565b5b600061202785828601611a5b565b925050602061203885828601611a5b565b9150509250929050565b7f4f6e6c7920726567697374657265642070726f7669646572732063616e20636160008201527f6c6c20746869732066756e6374696f6e00000000000000000000000000000000602082015250565b600061209e603083611dad565b91506120a982612042565b604082019050919050565b600060208201905081810360008301526120cd81612091565b9050919050565b7f4d656d626572206e6f7420726567697374657265640000000000000000000000600082015250565b600061210a601583611dad565b9150612115826120d4565b602082019050919050565b60006020820190508181036000830152612139816120fd565b9050919050565b7f436c61696d20616d6f756e7420746f6f20686967680000000000000000000000600082015250565b6000612176601583611dad565b915061218182612140565b602082019050919050565b600060208201905081810360008301526121a581612169565b9050919050565b7f4e487b7100000000000000000000000000000000000000000000000000000000600052601160045260246000fd5b60006121e682611a3a565b91506121f183611a3a565b9250828203905081811115612209576122086121ac565b5b92915050565b7f436f6e747269627574696f6e206e6f7420757020746f20646174650000000000600082015250565b6000612245601b83611dad565b91506122508261220f565b602082019050919050565b6000602082019050818103600083015261227481612238565b9050919050565b7f4e487b7100000000000000000000000000000000000000000000000000000000600052601260045260246000fd5b60006122b582611a3a565b91506122c083611a3a565b9250826122d0576122cf61227b565b5b828204905092915050565b60006122e682611a3a565b91506122f183611a3a565b9250828201905080821115612309576123086121ac565b5b92915050565b7f596561726c7920636c61696d206c696d69742065786365656465640000000000600082015250565b6000612345601b83611dad565b91506123508261230f565b602082019050919050565b6000602082019050818103600083015261237481612338565b9050919050565b7f4e487b7100000000000000000000000000000000000000000000000000000000600052602260045260246000fd5b600060028204905060018216806123c257607f821691505b6020821081036123d5576123d461237b565b5b50919050565b60008190508160005260206000209050919050565b60006020601f8301049050919050565b600082821b905092915050565b60006008830261243d7fffffffffffffffffffffffffffffffffffffffffffffffffffffffffffffffff82612400565b6124478683612400565b95508019841693508086168417925050509392505050565b6000819050919050565b600061248461247f61247a84611a3a565b61245f565b611a3a565b9050919050565b6000819050919050565b61249e83612469565b6124b26124aa8261248b565b84845461240d565b825550505050565b600090565b6124c76124ba565b6124d2818484612495565b505050565b5b818110156124f6576124eb6000826124bf565b6001810190506124d8565b5050565b601f82111561253b5761250c816123db565b612515846123f0565b81016020851015612524578190505b612538612530856123f0565b8301826124d7565b50505b505050565b600082821c905092915050565b600061255e60001984600802612540565b1980831691505092915050565b6000612577838361254d565b9150826002028217905092915050565b61259082611da2565b67ffffffffffffffff8111156125a9576125a8611a8b565b5b6125b382546123aa565b6125be8282856124fa565b600060209050601f8311600181146125f157600084156125df578287015190505b6125e9858261256b565b865550612651565b601f1984166125ff866123db565b60005b8281101561262757848901518255600182019150602085019450602081019050612602565b868310156126445784890151612640601f89168261254d565b8355505b6001600288020188555050505b505050505050565b600060608201905061266e6000830186611d78565b61267b6020830185611e9d565b6126886040830184611d78565b949350505050565b60006020820190506126a56000830184611f2f565b92915050565b7f50726f766964657220616c726561647920726567697374657265640000000000600082015250565b60006126e1601b83611dad565b91506126ec826126ab565b602082019050919050565b60006020820190508181036000830152612710816126d4565b9050919050565b7f496e73756666696369656e742062616c616e6365000000000000000000000000600082015250565b600061274d601483611dad565b915061275882612717565b602082019050919050565b6000602082019050818103600083015261277c81612740565b9050919050565b7f496e76616c6964206e6174696f6e616c20494400000000000000000000000000600082015250565b60006127b9601383611dad565b91506127c482612783565b602082019050919050565b600060208201905081810360008301526127e8816127ac565b9050919050565b7f4d656d626572206e6f742072656769737465726564206f7220696e616374697660008201527f6500000000000000000000000000000000000000000000000000000000000000602082015250565b600061284b602183611dad565b9150612856826127ef565b604082019050919050565b6000602082019050818103600083015261287a8161283e565b9050919050565b7f496e636f727265637420636f6e747269627574696f6e20616d6f756e74000000600082015250565b60006128b7601d83611dad565b91506128c282612881565b602082019050919050565b600060208201905081810360008301526128e6816128aa565b9050919050565b60006040820190506129026000830185611d78565b61290f6020830184611e9d565b9392505050565b7f496e76616c696420636c61696d20494400000000000000000000000000000000600082015250565b600061294c601083611dad565b915061295782612916565b602082019050919050565b6000602082019050818103600083015261297b8161293f565b9050919050565b7f4e487b7100000000000000000000000000000000000000000000000000000000600052603260045260246000fd5b7f436c61696d206973206e6f7420756e6465722072657669657700000000000000600082015250565b60006129e7601983611dad565b91506129f2826129b1565b602082019050919050565b60006020820190508181036000830152612a16816129da565b9050919050565b7f496e76616c6964206e6577207374617475730000000000000000000000000000600082015250565b6000612a53601283611dad565b9150612a5e82612a1d565b602082019050919050565b60006020820190508181036000830152612a8281612a46565b9050919050565b7f50726f7669646572206e6f742072656769737465726564000000000000000000600082015250565b6000612abf601783611dad565b9150612aca82612a89565b602082019050919050565b60006020820190508181036000830152612aee81612ab2565b9050919050565b7f4e616d652063616e6e6f7420626520656d707479000000000000000000000000600082015250565b6000612b2b601483611dad565b9150612b3682612af5565b602082019050919050565b60006020820190508181036000830152612b5a81612b1e565b9050919050565b60006020820190508181036000830152612b7b8184611de8565b905092915050565b7f436c61696d20616c726561647920706169640000000000000000000000000000600082015250565b6000612bb9601283611dad565b9150612bc482612b83565b602082019050919050565b60006020820190508181036000830152612be881612bac565b9050919050565b7f436c61696d206e6f7420617070726f7665640000000000000000000000000000600082015250565b6000612c25601283611dad565b9150612c3082612bef565b602082019050919050565b60006020820190508181036000830152612c5481612c18565b9050919050565b6000604082019050612c706000830185611e9d565b612c7d6020830184611d78565b939250505056fea26469706673582212206d5138560d10dfc02ec073c5099883af51e33c1a745657ad2c3ab5db6d900b0164736f6c63430008140033",
  "linkReferences": {},
  "deployedLinkReferences": {}
}